{
  "contractName": "Ballot",
  "abi": [
    {
      "inputs": [
        {
          "internalType": "uint256",
          "name": "numProposals",
          "type": "uint256"
        }
      ],
      "stateMutability": "nonpayable",
      "type": "constructor"
    },
    {
      "inputs": [],
      "name": "register",
      "outputs": [],
      "stateMutability": "nonpayable",
      "type": "function"
    },
    {
      "inputs": [
        {
          "internalType": "uint256",
          "name": "toProposal",
          "type": "uint256"
        }
      ],
      "name": "vote",
      "outputs": [],
      "stateMutability": "nonpayable",
      "type": "function"
    },
    {
      "inputs": [],
      "name": "reqWinner",
      "outputs": [
        {
          "internalType": "uint256",
          "name": "winningProposal",
          "type": "uint256"
        }
      ],
      "stateMutability": "view",
      "type": "function"
    }
  ],
  "bytecode": "0x608060405234801561001057600080fd5b50604051610a67380380610a678339818101604052810190610032919061017e565b336000806101000a81548173ffffffffffffffffffffffffffffffffffffffff021916908373ffffffffffffffffffffffffffffffffffffffff1602179055506002600160008060009054906101000a900473ffffffffffffffffffffffffffffffffffffffff1673ffffffffffffffffffffffffffffffffffffffff1673ffffffffffffffffffffffffffffffffffffffff1681526020019081526020016000206000018190555060005b8181101561013c57600260405180602001604052806000815250908060018154018082558091505060019003906000526020600020016000909190919091506000820151816000015550508080610134906101da565b9150506100de565b5050610222565b600080fd5b6000819050919050565b61015b81610148565b811461016657600080fd5b50565b60008151905061017881610152565b92915050565b60006020828403121561019457610193610143565b5b60006101a284828501610169565b91505092915050565b7f4e487b7100000000000000000000000000000000000000000000000000000000600052601160045260246000fd5b60006101e582610148565b91507fffffffffffffffffffffffffffffffffffffffffffffffffffffffffffffffff8203610217576102166101ab565b5b600182019050919050565b610836806102316000396000f3fe608060405234801561001057600080fd5b50600436106100415760003560e01c80630121b93f146100465780631aa3a00814610062578063508b30c91461006c575b600080fd5b610060600480360381019061005b9190610447565b61008a565b005b61006a610251565b005b61007461037a565b6040516100819190610483565b60405180910390f35b6000600160003373ffffffffffffffffffffffffffffffffffffffff1673ffffffffffffffffffffffffffffffffffffffff168152602001908152602001600020600001541161010f576040517f08c379a000000000000000000000000000000000000000000000000000000000815260040161010690610521565b60405180910390fd5b6000600160003373ffffffffffffffffffffffffffffffffffffffff1673ffffffffffffffffffffffffffffffffffffffff16815260200190815260200160002090508060010160009054906101000a900460ff16156101a4576040517f08c379a000000000000000000000000000000000000000000000000000000000815260040161019b906105b3565b60405180910390fd5b60028054905082106101eb576040517f08c379a00000000000000000000000000000000000000000000000000000000081526004016101e290610645565b60405180910390fd5b60018160010160006101000a81548160ff02191690831515021790555081816002018190555080600001546002838154811061022a57610229610665565b5b90600052602060002001600001600082825461024691906106c3565b925050819055505050565b6000600160003373ffffffffffffffffffffffffffffffffffffffff1673ffffffffffffffffffffffffffffffffffffffff16815260200190815260200160002060000154146102d6576040517f08c379a00000000000000000000000000000000000000000000000000000000081526004016102cd90610769565b60405180910390fd5b60018060003373ffffffffffffffffffffffffffffffffffffffff1673ffffffffffffffffffffffffffffffffffffffff168152602001908152602001600020600001819055506000600160003373ffffffffffffffffffffffffffffffffffffffff1673ffffffffffffffffffffffffffffffffffffffff16815260200190815260200160002060010160006101000a81548160ff021916908315150217905550565b6000806000905060005b6002805490508110156103f55781600282815481106103a6576103a5610665565b5b906000526020600020016000015411156103e257600281815481106103ce576103cd610665565b5b906000526020600020016000015491508092505b80806103ed90610789565b915050610384565b506003811015610408576104076107d1565b5b5090565b600080fd5b6000819050919050565b61042481610411565b811461042f57600080fd5b50565b6000813590506104418161041b565b92915050565b60006020828403121561045d5761045c61040c565b5b600061046b84828501610432565b91505092915050565b61047d81610411565b82525050565b60006020820190506104986000830184610474565b92915050565b600082825260208201905092915050565b7f4163636573732044656e6965643a204e6f74206120526567697374657265642060008201527f566f746572210000000000000000000000000000000000000000000000000000602082015250565b600061050b60268361049e565b9150610516826104af565b604082019050919050565b6000602082019050818103600083015261053a816104fe565b9050919050565b7f566f74652044656e6965643a205468697320757365722068617320616c72656160008201527f647920636173746564206120766f746521000000000000000000000000000000602082015250565b600061059d60318361049e565b91506105a882610541565b604082019050919050565b600060208201905081810360008301526105cc81610590565b9050919050565b7f496e76616c696420566f74653a2054686520766f74652070726f706f73616c2060008201527f656e746572656420697320696e76616c69642100000000000000000000000000602082015250565b600061062f60338361049e565b915061063a826105d3565b604082019050919050565b6000602082019050818103600083015261065e81610622565b9050919050565b7f4e487b7100000000000000000000000000000000000000000000000000000000600052603260045260246000fd5b7f4e487b7100000000000000000000000000000000000000000000000000000000600052601160045260246000fd5b60006106ce82610411565b91506106d983610411565b92508282019050808211156106f1576106f0610694565b5b92915050565b7f4163636573732044656e6965643a205573657220686173206265656e2072656760008201527f6973746572656420616c72656164792100000000000000000000000000000000602082015250565b600061075360308361049e565b915061075e826106f7565b604082019050919050565b6000602082019050818103600083015261078281610746565b9050919050565b600061079482610411565b91507fffffffffffffffffffffffffffffffffffffffffffffffffffffffffffffffff82036107c6576107c5610694565b5b600182019050919050565b7f4e487b7100000000000000000000000000000000000000000000000000000000600052600160045260246000fdfea2646970667358221220b07c67e514fac7b581cc20b2b2bf03fa2ddc5942b3b42ae4d512c7eeb373e51b64736f6c63430008100033",
  "immutableReferences": {},
  "source": "//SPDX-License-Identifier: UNLICENSED\npragma solidity >=0.4.22 <0.9.0;\n\ncontract Ballot {\n    // The address which deployed the contract, who is also the chairperson in this context\n    address chairperson;\n\n    /**\n     * Each user that register gets mapped to a Voter struct that specifies:\n     * - weight: The weight of this users' vote\n     * - voted: Indicates if the user has already voted or not\n     * - vote: To whom they have voted for\n     */\n    struct Voter {\n        uint256 weight;\n        bool voted;\n        uint256 vote;\n    }\n\n    /**\n     * The following Proposal struct that keeps track of:\n     * - voteCount: The number of votes that were receieved for this specific proposal\n     */\n    struct Proposal {\n        uint256 voteCount;\n    }\n\n    // Mapping user address to a Voter struct\n    mapping(address => Voter) voters;\n\n    // An array of Proposal struct\n    Proposal[] proposals;\n\n    /**\n     * Makes sure that the user calling a function was the chairperson\n     */\n    modifier onlyChair() {\n        require(\n            msg.sender == chairperson,\n            \"Access Denied: user is not the chairperson!\"\n        );\n        _;\n    }\n\n    /**\n     * Makes sure that the user calling a function was a registered voter\n     */\n    modifier validVoter() {\n        require(\n            voters[msg.sender].weight > 0,\n            \"Access Denied: Not a Registered Voter!\"\n        );\n        _;\n    }\n\n    /**\n     * Makes sure that the user calling a function has not registered before\n     */\n    modifier validRegistrant() {\n        require(\n            voters[msg.sender].weight == 0,\n            \"Access Denied: User has been registered already!\"\n        );\n        _;\n    }\n\n    constructor(uint256 numProposals) {\n        chairperson = msg.sender;\n        voters[chairperson].weight = 2; // weight 2 for testing purposes\n        for (uint256 prop = 0; prop < numProposals; prop++) {\n            proposals.push(Proposal(0));\n        }\n    }\n\n    function register() public validRegistrant {\n        voters[msg.sender].weight = 1;\n        voters[msg.sender].voted = false;\n    }\n\n    function vote(uint256 toProposal) public validVoter {\n        Voter storage sender = voters[msg.sender];\n\n        require(!sender.voted, \"Vote Denied: This user has already casted a vote!\");\n        require(toProposal < proposals.length, \"Invalid Vote: The vote proposal entered is invalid!\");\n\n        sender.voted = true;\n        sender.vote = toProposal;\n        proposals[toProposal].voteCount += sender.weight;\n    }\n\n    function reqWinner() public view returns (uint256 winningProposal) {\n        uint256 winningVoteCount = 0;\n        for (uint256 prop = 0; prop < proposals.length; prop++)\n            if (proposals[prop].voteCount > winningVoteCount) {\n                winningVoteCount = proposals[prop].voteCount;\n                winningProposal = prop;\n            }\n        assert(winningVoteCount >= 3);\n    }\n}",
  "sourcePath": "C:\\Users\\Prathap\\Desktop\\Node\\new92\\BallotPost-2\\ballot-contract\\contracts\\Ballot.sol",
  "compiler": {
    "name": "solc",
    "version": "0.8.16+commit.07a7930e.Emscripten.clang"
  },
  "schemaVersion": "3.4.16",
  "updatedAt": "2023-12-04T01:30:07.282Z",
  "devdoc": {
    "kind": "dev",
    "methods": {},
    "version": 1
  },
  "userdoc": {
    "kind": "user",
    "methods": {},
    "version": 1
  }
}