{
  "contractName": "Chainfundbatch",
  "abi": [
    {
      "inputs": [
        {
          "internalType": "address",
          "name": "_erc1155Address",
          "type": "address"
        }
      ],
      "stateMutability": "nonpayable",
      "type": "constructor"
    },
    {
      "anonymous": false,
      "inputs": [
        {
          "indexed": true,
          "internalType": "address",
          "name": "account",
          "type": "address"
        },
        {
          "indexed": true,
          "internalType": "address",
          "name": "operator",
          "type": "address"
        },
        {
          "indexed": false,
          "internalType": "bool",
          "name": "approved",
          "type": "bool"
        }
      ],
      "name": "ApprovalForAll",
      "type": "event"
    },
    {
      "anonymous": false,
      "inputs": [
        {
          "indexed": true,
          "internalType": "address",
          "name": "operator",
          "type": "address"
        },
        {
          "indexed": true,
          "internalType": "address",
          "name": "from",
          "type": "address"
        },
        {
          "indexed": true,
          "internalType": "address",
          "name": "to",
          "type": "address"
        },
        {
          "indexed": false,
          "internalType": "uint256[]",
          "name": "ids",
          "type": "uint256[]"
        },
        {
          "indexed": false,
          "internalType": "uint256[]",
          "name": "values",
          "type": "uint256[]"
        }
      ],
      "name": "TransferBatch",
      "type": "event"
    },
    {
      "anonymous": false,
      "inputs": [
        {
          "indexed": true,
          "internalType": "address",
          "name": "operator",
          "type": "address"
        },
        {
          "indexed": true,
          "internalType": "address",
          "name": "from",
          "type": "address"
        },
        {
          "indexed": true,
          "internalType": "address",
          "name": "to",
          "type": "address"
        },
        {
          "indexed": false,
          "internalType": "uint256",
          "name": "id",
          "type": "uint256"
        },
        {
          "indexed": false,
          "internalType": "uint256",
          "name": "value",
          "type": "uint256"
        }
      ],
      "name": "TransferSingle",
      "type": "event"
    },
    {
      "anonymous": false,
      "inputs": [
        {
          "indexed": false,
          "internalType": "string",
          "name": "value",
          "type": "string"
        },
        {
          "indexed": true,
          "internalType": "uint256",
          "name": "id",
          "type": "uint256"
        }
      ],
      "name": "URI",
      "type": "event"
    },
    {
      "inputs": [],
      "name": "CFTID",
      "outputs": [
        {
          "internalType": "uint256",
          "name": "",
          "type": "uint256"
        }
      ],
      "stateMutability": "view",
      "type": "function",
      "constant": true
    },
    {
      "inputs": [],
      "name": "ETHPerCFT",
      "outputs": [
        {
          "internalType": "uint256",
          "name": "",
          "type": "uint256"
        }
      ],
      "stateMutability": "view",
      "type": "function",
      "constant": true
    },
    {
      "inputs": [],
      "name": "NFTID",
      "outputs": [
        {
          "internalType": "uint256",
          "name": "",
          "type": "uint256"
        }
      ],
      "stateMutability": "view",
      "type": "function",
      "constant": true
    },
    {
      "inputs": [
        {
          "internalType": "address",
          "name": "account",
          "type": "address"
        },
        {
          "internalType": "uint256",
          "name": "id",
          "type": "uint256"
        }
      ],
      "name": "balanceOf",
      "outputs": [
        {
          "internalType": "uint256",
          "name": "",
          "type": "uint256"
        }
      ],
      "stateMutability": "view",
      "type": "function",
      "constant": true
    },
    {
      "inputs": [
        {
          "internalType": "address[]",
          "name": "accounts",
          "type": "address[]"
        },
        {
          "internalType": "uint256[]",
          "name": "ids",
          "type": "uint256[]"
        }
      ],
      "name": "balanceOfBatch",
      "outputs": [
        {
          "internalType": "uint256[]",
          "name": "",
          "type": "uint256[]"
        }
      ],
      "stateMutability": "view",
      "type": "function",
      "constant": true
    },
    {
      "inputs": [
        {
          "internalType": "address",
          "name": "account",
          "type": "address"
        },
        {
          "internalType": "address",
          "name": "operator",
          "type": "address"
        }
      ],
      "name": "isApprovedForAll",
      "outputs": [
        {
          "internalType": "bool",
          "name": "",
          "type": "bool"
        }
      ],
      "stateMutability": "view",
      "type": "function",
      "constant": true
    },
    {
      "inputs": [],
      "name": "owner",
      "outputs": [
        {
          "internalType": "address",
          "name": "",
          "type": "address"
        }
      ],
      "stateMutability": "view",
      "type": "function",
      "constant": true
    },
    {
      "inputs": [
        {
          "internalType": "uint256",
          "name": "",
          "type": "uint256"
        }
      ],
      "name": "registeredInvestors",
      "outputs": [
        {
          "internalType": "address",
          "name": "",
          "type": "address"
        }
      ],
      "stateMutability": "view",
      "type": "function",
      "constant": true
    },
    {
      "inputs": [
        {
          "internalType": "address",
          "name": "from",
          "type": "address"
        },
        {
          "internalType": "address",
          "name": "to",
          "type": "address"
        },
        {
          "internalType": "uint256[]",
          "name": "ids",
          "type": "uint256[]"
        },
        {
          "internalType": "uint256[]",
          "name": "amounts",
          "type": "uint256[]"
        },
        {
          "internalType": "bytes",
          "name": "data",
          "type": "bytes"
        }
      ],
      "name": "safeBatchTransferFrom",
      "outputs": [],
      "stateMutability": "nonpayable",
      "type": "function"
    },
    {
      "inputs": [
        {
          "internalType": "address",
          "name": "from",
          "type": "address"
        },
        {
          "internalType": "address",
          "name": "to",
          "type": "address"
        },
        {
          "internalType": "uint256",
          "name": "id",
          "type": "uint256"
        },
        {
          "internalType": "uint256",
          "name": "amount",
          "type": "uint256"
        },
        {
          "internalType": "bytes",
          "name": "data",
          "type": "bytes"
        }
      ],
      "name": "safeTransferFrom",
      "outputs": [],
      "stateMutability": "nonpayable",
      "type": "function"
    },
    {
      "inputs": [
        {
          "internalType": "address",
          "name": "operator",
          "type": "address"
        },
        {
          "internalType": "bool",
          "name": "approved",
          "type": "bool"
        }
      ],
      "name": "setApprovalForAll",
      "outputs": [],
      "stateMutability": "nonpayable",
      "type": "function"
    },
    {
      "inputs": [
        {
          "internalType": "bytes4",
          "name": "interfaceId",
          "type": "bytes4"
        }
      ],
      "name": "supportsInterface",
      "outputs": [
        {
          "internalType": "bool",
          "name": "",
          "type": "bool"
        }
      ],
      "stateMutability": "view",
      "type": "function",
      "constant": true
    },
    {
      "inputs": [
        {
          "internalType": "uint256",
          "name": "",
          "type": "uint256"
        }
      ],
      "name": "uri",
      "outputs": [
        {
          "internalType": "string",
          "name": "",
          "type": "string"
        }
      ],
      "stateMutability": "view",
      "type": "function",
      "constant": true
    },
    {
      "inputs": [],
      "name": "batchpurchase",
      "outputs": [],
      "stateMutability": "payable",
      "type": "function",
      "payable": true
    },
    {
      "inputs": [
        {
          "internalType": "address",
          "name": "from",
          "type": "address"
        },
        {
          "internalType": "address",
          "name": "to",
          "type": "address"
        },
        {
          "internalType": "uint256",
          "name": "CFTamount",
          "type": "uint256"
        }
      ],
      "name": "transferCFTandNFT",
      "outputs": [],
      "stateMutability": "nonpayable",
      "type": "function"
    },
    {
      "inputs": [
        {
          "internalType": "address",
          "name": "user",
          "type": "address"
        },
        {
          "internalType": "uint256",
          "name": "id",
          "type": "uint256"
        }
      ],
      "name": "getbalance",
      "outputs": [
        {
          "internalType": "uint256",
          "name": "",
          "type": "uint256"
        }
      ],
      "stateMutability": "view",
      "type": "function",
      "constant": true
    }
  ],
  "bytecode": "0x60806040523480156200001157600080fd5b50604051620039c5380380620039c583398181016040528101906200003791906200012a565b6040518060600160405280602d815260200162003998602d91396200006281620000ab60201b60201c565b5080600560006101000a81548173ffffffffffffffffffffffffffffffffffffffff021916908373ffffffffffffffffffffffffffffffffffffffff16021790555050620004bd565b8060029081620000bc9190620003d6565b5050565b600080fd5b600073ffffffffffffffffffffffffffffffffffffffff82169050919050565b6000620000f282620000c5565b9050919050565b6200010481620000e5565b81146200011057600080fd5b50565b6000815190506200012481620000f9565b92915050565b600060208284031215620001435762000142620000c0565b5b6000620001538482850162000113565b91505092915050565b600081519050919050565b7f4e487b7100000000000000000000000000000000000000000000000000000000600052604160045260246000fd5b7f4e487b7100000000000000000000000000000000000000000000000000000000600052602260045260246000fd5b60006002820490506001821680620001de57607f821691505b602082108103620001f457620001f362000196565b5b50919050565b60008190508160005260206000209050919050565b60006020601f8301049050919050565b600082821b905092915050565b6000600883026200025e7fffffffffffffffffffffffffffffffffffffffffffffffffffffffffffffffff826200021f565b6200026a86836200021f565b95508019841693508086168417925050509392505050565b6000819050919050565b6000819050919050565b6000620002b7620002b1620002ab8462000282565b6200028c565b62000282565b9050919050565b6000819050919050565b620002d38362000296565b620002eb620002e282620002be565b8484546200022c565b825550505050565b600090565b62000302620002f3565b6200030f818484620002c8565b505050565b5b8181101562000337576200032b600082620002f8565b60018101905062000315565b5050565b601f82111562000386576200035081620001fa565b6200035b846200020f565b810160208510156200036b578190505b620003836200037a856200020f565b83018262000314565b50505b505050565b600082821c905092915050565b6000620003ab600019846008026200038b565b1980831691505092915050565b6000620003c6838362000398565b9150826002028217905092915050565b620003e1826200015c565b67ffffffffffffffff811115620003fd57620003fc62000167565b5b620004098254620001c5565b620004168282856200033b565b600060209050601f8311600181146200044e576000841562000439578287015190505b620004458582620003b8565b865550620004b5565b601f1984166200045e86620001fa565b60005b82811015620004885784890151825560018201915060208501945060208101905062000461565b86831015620004a85784890151620004a4601f89168262000398565b8355505b6001600288020188555050505b505050505050565b6134cb80620004cd6000396000f3fe6080604052600436106100f25760003560e01c80635848c95c1161008a5780638da5cb5b116100595780638da5cb5b14610342578063a22cb4651461036d578063e985e9c514610396578063f242432a146103d3576100f2565b80635848c95c146102a55780635bdaa2c8146102d05780636d1837e2146102fb578063843d998414610338576100f2565b80632df9f549116100c65780632df9f549146101eb5780632eb2c2d61461021657806339e563071461023f5780634e1273f414610268576100f2565b8062fdd58e146100f757806301ffc9a7146101345780630e89341c146101715780631da7180d146101ae575b600080fd5b34801561010357600080fd5b5061011e60048036038101906101199190611e9c565b6103fc565b60405161012b9190611eeb565b60405180910390f35b34801561014057600080fd5b5061015b60048036038101906101569190611f5e565b6104c4565b6040516101689190611fa6565b60405180910390f35b34801561017d57600080fd5b5061019860048036038101906101939190611fc1565b6105a6565b6040516101a5919061207e565b60405180910390f35b3480156101ba57600080fd5b506101d560048036038101906101d09190611fc1565b61063a565b6040516101e291906120af565b60405180910390f35b3480156101f757600080fd5b50610200610679565b60405161020d9190611eeb565b60405180910390f35b34801561022257600080fd5b5061023d600480360381019061023891906122c7565b61067e565b005b34801561024b57600080fd5b5061026660048036038101906102619190612396565b61071f565b005b34801561027457600080fd5b5061028f600480360381019061028a91906124ac565b610a5f565b60405161029c91906125e2565b60405180910390f35b3480156102b157600080fd5b506102ba610b78565b6040516102c79190611eeb565b60405180910390f35b3480156102dc57600080fd5b506102e5610b7d565b6040516102f29190611eeb565b60405180910390f35b34801561030757600080fd5b50610322600480360381019061031d9190611e9c565b610b89565b60405161032f9190611eeb565b60405180910390f35b610340610b9d565b005b34801561034e57600080fd5b50610357610e62565b60405161036491906120af565b60405180910390f35b34801561037957600080fd5b50610394600480360381019061038f9190612630565b610e88565b005b3480156103a257600080fd5b506103bd60048036038101906103b89190612670565b610e9e565b6040516103ca9190611fa6565b60405180910390f35b3480156103df57600080fd5b506103fa60048036038101906103f591906126b0565b610f32565b005b60008073ffffffffffffffffffffffffffffffffffffffff168373ffffffffffffffffffffffffffffffffffffffff160361046c576040517f08c379a0000000000000000000000000000000000000000000000000000000008152600401610463906127b9565b60405180910390fd5b60008083815260200190815260200160002060008473ffffffffffffffffffffffffffffffffffffffff1673ffffffffffffffffffffffffffffffffffffffff16815260200190815260200160002054905092915050565b60007fd9b67a26000000000000000000000000000000000000000000000000000000007bffffffffffffffffffffffffffffffffffffffffffffffffffffffff1916827bffffffffffffffffffffffffffffffffffffffffffffffffffffffff1916148061058f57507f0e89341c000000000000000000000000000000000000000000000000000000007bffffffffffffffffffffffffffffffffffffffffffffffffffffffff1916827bffffffffffffffffffffffffffffffffffffffffffffffffffffffff1916145b8061059f575061059e82610fd3565b5b9050919050565b6060600280546105b590612808565b80601f01602080910402602001604051908101604052809291908181526020018280546105e190612808565b801561062e5780601f106106035761010080835404028352916020019161062e565b820191906000526020600020905b81548152906001019060200180831161061157829003601f168201915b50505050509050919050565b6004818154811061064a57600080fd5b906000526020600020016000915054906101000a900473ffffffffffffffffffffffffffffffffffffffff1681565b600181565b61068661103d565b73ffffffffffffffffffffffffffffffffffffffff168573ffffffffffffffffffffffffffffffffffffffff1614806106cc57506106cb856106c661103d565b610e9e565b5b61070b576040517f08c379a0000000000000000000000000000000000000000000000000000000008152600401610702906128ab565b60405180910390fd5b6107188585858585611045565b5050505050565b600560009054906101000a900473ffffffffffffffffffffffffffffffffffffffff1673ffffffffffffffffffffffffffffffffffffffff16639c5f8385336040518263ffffffff1660e01b815260040161077a91906120af565b602060405180830381865afa158015610797573d6000803e3d6000fd5b505050506040513d601f19601f820116820180604052508101906107bb91906128e0565b6107fa576040517f08c379a00000000000000000000000000000000000000000000000000000000081526004016107f19061297f565b60405180910390fd5b600560009054906101000a900473ffffffffffffffffffffffffffffffffffffffff1673ffffffffffffffffffffffffffffffffffffffff16639c5f8385836040518263ffffffff1660e01b815260040161085591906120af565b602060405180830381865afa158015610872573d6000803e3d6000fd5b505050506040513d601f19601f8201168201806040525081019061089691906128e0565b6108d5576040517f08c379a00000000000000000000000000000000000000000000000000000000081526004016108cc90612a11565b60405180910390fd5b6014811015610919576040517f08c379a000000000000000000000000000000000000000000000000000000000815260040161091090612aa3565b60405180910390fd5b6000600267ffffffffffffffff811115610936576109356120cf565b5b6040519080825280602002602001820160405280156109645781602001602082028036833780820191505090505b5090506000600267ffffffffffffffff811115610984576109836120cf565b5b6040519080825280602002602001820160405280156109b25781602001602082028036833780820191505090505b5090506000826000815181106109cb576109ca612ac3565b5b60200260200101818152505082816000815181106109ec576109eb612ac3565b5b602002602001018181525050600182600181518110610a0e57610a0d612ac3565b5b602002602001018181525050600181600181518110610a3057610a2f612ac3565b5b602002602001018181525050610a58858584846040518060200160405280600081525061067e565b5050505050565b60608151835114610aa5576040517f08c379a0000000000000000000000000000000000000000000000000000000008152600401610a9c90612b64565b60405180910390fd5b6000835167ffffffffffffffff811115610ac257610ac16120cf565b5b604051908082528060200260200182016040528015610af05781602001602082028036833780820191505090505b50905060005b8451811015610b6d57610b3d858281518110610b1557610b14612ac3565b5b6020026020010151858381518110610b3057610b2f612ac3565b5b60200260200101516103fc565b828281518110610b5057610b4f612ac3565b5b60200260200101818152505080610b6690612bb3565b9050610af6565b508091505092915050565b600081565b67016345785d8a000081565b6000610b9583836103fc565b905092915050565b600560009054906101000a900473ffffffffffffffffffffffffffffffffffffffff1673ffffffffffffffffffffffffffffffffffffffff16639c5f8385336040518263ffffffff1660e01b8152600401610bf891906120af565b602060405180830381865afa158015610c15573d6000803e3d6000fd5b505050506040513d601f19601f82011682018060405250810190610c3991906128e0565b610c78576040517f08c379a0000000000000000000000000000000000000000000000000000000008152600401610c6f9061297f565b60405180910390fd5b67016345785d8a0000341015610cc3576040517f08c379a0000000000000000000000000000000000000000000000000000000008152600401610cba90612c47565b60405180910390fd5b600067016345785d8a000034610cd99190612c96565b90506014811015610d1f576040517f08c379a0000000000000000000000000000000000000000000000000000000008152600401610d1690612d39565b60405180910390fd5b6000600267ffffffffffffffff811115610d3c57610d3b6120cf565b5b604051908082528060200260200182016040528015610d6a5781602001602082028036833780820191505090505b5090506000600267ffffffffffffffff811115610d8a57610d896120cf565b5b604051908082528060200260200182016040528015610db85781602001602082028036833780820191505090505b509050600082600081518110610dd157610dd0612ac3565b5b602002602001018181525050600182600181518110610df357610df2612ac3565b5b6020026020010181815250508281600081518110610e1457610e13612ac3565b5b602002602001018181525050600181600181518110610e3657610e35612ac3565b5b602002602001018181525050610e5d33838360405180602001604052806000815250611366565b505050565b600360009054906101000a900473ffffffffffffffffffffffffffffffffffffffff1681565b610e9a610e9361103d565b8383611592565b5050565b6000600160008473ffffffffffffffffffffffffffffffffffffffff1673ffffffffffffffffffffffffffffffffffffffff16815260200190815260200160002060008373ffffffffffffffffffffffffffffffffffffffff1673ffffffffffffffffffffffffffffffffffffffff16815260200190815260200160002060009054906101000a900460ff16905092915050565b610f3a61103d565b73ffffffffffffffffffffffffffffffffffffffff168573ffffffffffffffffffffffffffffffffffffffff161480610f805750610f7f85610f7a61103d565b610e9e565b5b610fbf576040517f08c379a0000000000000000000000000000000000000000000000000000000008152600401610fb690612dcb565b60405180910390fd5b610fcc85858585856116fe565b5050505050565b60007f01ffc9a7000000000000000000000000000000000000000000000000000000007bffffffffffffffffffffffffffffffffffffffffffffffffffffffff1916827bffffffffffffffffffffffffffffffffffffffffffffffffffffffff1916149050919050565b600033905090565b8151835114611089576040517f08c379a000000000000000000000000000000000000000000000000000000000815260040161108090612e5d565b60405180910390fd5b600073ffffffffffffffffffffffffffffffffffffffff168473ffffffffffffffffffffffffffffffffffffffff16036110f8576040517f08c379a00000000000000000000000000000000000000000000000000000000081526004016110ef90612eef565b60405180910390fd5b600061110261103d565b9050611112818787878787611999565b60005b84518110156112c357600085828151811061113357611132612ac3565b5b60200260200101519050600085838151811061115257611151612ac3565b5b60200260200101519050600080600084815260200190815260200160002060008b73ffffffffffffffffffffffffffffffffffffffff1673ffffffffffffffffffffffffffffffffffffffff168152602001908152602001600020549050818110156111f3576040517f08c379a00000000000000000000000000000000000000000000000000000000081526004016111ea90612f81565b60405180910390fd5b81810360008085815260200190815260200160002060008c73ffffffffffffffffffffffffffffffffffffffff1673ffffffffffffffffffffffffffffffffffffffff168152602001908152602001600020819055508160008085815260200190815260200160002060008b73ffffffffffffffffffffffffffffffffffffffff1673ffffffffffffffffffffffffffffffffffffffff16815260200190815260200160002060008282546112a89190612fa1565b92505081905550505050806112bc90612bb3565b9050611115565b508473ffffffffffffffffffffffffffffffffffffffff168673ffffffffffffffffffffffffffffffffffffffff168273ffffffffffffffffffffffffffffffffffffffff167f4a39dc06d4c0dbc64b70af90fd698a233a518aa5d07e595d983b8c0526c8f7fb878760405161133a929190612fd5565b60405180910390a46113508187878787876119a1565b61135e8187878787876119a9565b505050505050565b600073ffffffffffffffffffffffffffffffffffffffff168473ffffffffffffffffffffffffffffffffffffffff16036113d5576040517f08c379a00000000000000000000000000000000000000000000000000000000081526004016113cc9061307e565b60405180910390fd5b8151835114611419576040517f08c379a000000000000000000000000000000000000000000000000000000000815260040161141090612e5d565b60405180910390fd5b600061142361103d565b905061143481600087878787611999565b60005b84518110156114ed5783818151811061145357611452612ac3565b5b602002602001015160008087848151811061147157611470612ac3565b5b6020026020010151815260200190815260200160002060008873ffffffffffffffffffffffffffffffffffffffff1673ffffffffffffffffffffffffffffffffffffffff16815260200190815260200160002060008282546114d39190612fa1565b9250508190555080806114e590612bb3565b915050611437565b508473ffffffffffffffffffffffffffffffffffffffff16600073ffffffffffffffffffffffffffffffffffffffff168273ffffffffffffffffffffffffffffffffffffffff167f4a39dc06d4c0dbc64b70af90fd698a233a518aa5d07e595d983b8c0526c8f7fb8787604051611565929190612fd5565b60405180910390a461157c816000878787876119a1565b61158b816000878787876119a9565b5050505050565b8173ffffffffffffffffffffffffffffffffffffffff168373ffffffffffffffffffffffffffffffffffffffff1603611600576040517f08c379a00000000000000000000000000000000000000000000000000000000081526004016115f790613110565b60405180910390fd5b80600160008573ffffffffffffffffffffffffffffffffffffffff1673ffffffffffffffffffffffffffffffffffffffff16815260200190815260200160002060008473ffffffffffffffffffffffffffffffffffffffff1673ffffffffffffffffffffffffffffffffffffffff16815260200190815260200160002060006101000a81548160ff0219169083151502179055508173ffffffffffffffffffffffffffffffffffffffff168373ffffffffffffffffffffffffffffffffffffffff167f17307eab39ab6107e8899845ad3d59bd9653f200f220920489ca2b5937696c31836040516116f19190611fa6565b60405180910390a3505050565b600073ffffffffffffffffffffffffffffffffffffffff168473ffffffffffffffffffffffffffffffffffffffff160361176d576040517f08c379a000000000000000000000000000000000000000000000000000000000815260040161176490612eef565b60405180910390fd5b600061177761103d565b9050600061178485611b80565b9050600061179185611b80565b90506117a1838989858589611999565b600080600088815260200190815260200160002060008a73ffffffffffffffffffffffffffffffffffffffff1673ffffffffffffffffffffffffffffffffffffffff16815260200190815260200160002054905085811015611838576040517f08c379a000000000000000000000000000000000000000000000000000000000815260040161182f90612f81565b60405180910390fd5b85810360008089815260200190815260200160002060008b73ffffffffffffffffffffffffffffffffffffffff1673ffffffffffffffffffffffffffffffffffffffff168152602001908152602001600020819055508560008089815260200190815260200160002060008a73ffffffffffffffffffffffffffffffffffffffff1673ffffffffffffffffffffffffffffffffffffffff16815260200190815260200160002060008282546118ed9190612fa1565b925050819055508773ffffffffffffffffffffffffffffffffffffffff168973ffffffffffffffffffffffffffffffffffffffff168573ffffffffffffffffffffffffffffffffffffffff167fc3d58168c5ae7397731d063d5bbf3d657854427343f4c083240f7aacaa2d0f628a8a60405161196a929190613130565b60405180910390a4611980848a8a86868a6119a1565b61198e848a8a8a8a8a611bfa565b505050505050505050565b505050505050565b505050505050565b6119c88473ffffffffffffffffffffffffffffffffffffffff16611dd1565b15611b78578373ffffffffffffffffffffffffffffffffffffffff1663bc197c8187878686866040518663ffffffff1660e01b8152600401611a0e9594939291906131ae565b6020604051808303816000875af1925050508015611a4a57506040513d601f19601f82011682018060405250810190611a47919061322b565b60015b611aef57611a56613265565b806308c379a003611ab25750611a6a613287565b80611a755750611ab4565b806040517f08c379a0000000000000000000000000000000000000000000000000000000008152600401611aa9919061207e565b60405180910390fd5b505b6040517f08c379a0000000000000000000000000000000000000000000000000000000008152600401611ae690613389565b60405180910390fd5b63bc197c8160e01b7bffffffffffffffffffffffffffffffffffffffffffffffffffffffff1916817bffffffffffffffffffffffffffffffffffffffffffffffffffffffff191614611b76576040517f08c379a0000000000000000000000000000000000000000000000000000000008152600401611b6d9061341b565b60405180910390fd5b505b505050505050565b60606000600167ffffffffffffffff811115611b9f57611b9e6120cf565b5b604051908082528060200260200182016040528015611bcd5781602001602082028036833780820191505090505b5090508281600081518110611be557611be4612ac3565b5b60200260200101818152505080915050919050565b611c198473ffffffffffffffffffffffffffffffffffffffff16611dd1565b15611dc9578373ffffffffffffffffffffffffffffffffffffffff1663f23a6e6187878686866040518663ffffffff1660e01b8152600401611c5f95949392919061343b565b6020604051808303816000875af1925050508015611c9b57506040513d601f19601f82011682018060405250810190611c98919061322b565b60015b611d4057611ca7613265565b806308c379a003611d035750611cbb613287565b80611cc65750611d05565b806040517f08c379a0000000000000000000000000000000000000000000000000000000008152600401611cfa919061207e565b60405180910390fd5b505b6040517f08c379a0000000000000000000000000000000000000000000000000000000008152600401611d3790613389565b60405180910390fd5b63f23a6e6160e01b7bffffffffffffffffffffffffffffffffffffffffffffffffffffffff1916817bffffffffffffffffffffffffffffffffffffffffffffffffffffffff191614611dc7576040517f08c379a0000000000000000000000000000000000000000000000000000000008152600401611dbe9061341b565b60405180910390fd5b505b505050505050565b6000808273ffffffffffffffffffffffffffffffffffffffff163b119050919050565b6000604051905090565b600080fd5b600080fd5b600073ffffffffffffffffffffffffffffffffffffffff82169050919050565b6000611e3382611e08565b9050919050565b611e4381611e28565b8114611e4e57600080fd5b50565b600081359050611e6081611e3a565b92915050565b6000819050919050565b611e7981611e66565b8114611e8457600080fd5b50565b600081359050611e9681611e70565b92915050565b60008060408385031215611eb357611eb2611dfe565b5b6000611ec185828601611e51565b9250506020611ed285828601611e87565b9150509250929050565b611ee581611e66565b82525050565b6000602082019050611f006000830184611edc565b92915050565b60007fffffffff0000000000000000000000000000000000000000000000000000000082169050919050565b611f3b81611f06565b8114611f4657600080fd5b50565b600081359050611f5881611f32565b92915050565b600060208284031215611f7457611f73611dfe565b5b6000611f8284828501611f49565b91505092915050565b60008115159050919050565b611fa081611f8b565b82525050565b6000602082019050611fbb6000830184611f97565b92915050565b600060208284031215611fd757611fd6611dfe565b5b6000611fe584828501611e87565b91505092915050565b600081519050919050565b600082825260208201905092915050565b60005b8381101561202857808201518184015260208101905061200d565b60008484015250505050565b6000601f19601f8301169050919050565b600061205082611fee565b61205a8185611ff9565b935061206a81856020860161200a565b61207381612034565b840191505092915050565b600060208201905081810360008301526120988184612045565b905092915050565b6120a981611e28565b82525050565b60006020820190506120c460008301846120a0565b92915050565b600080fd5b7f4e487b7100000000000000000000000000000000000000000000000000000000600052604160045260246000fd5b61210782612034565b810181811067ffffffffffffffff82111715612126576121256120cf565b5b80604052505050565b6000612139611df4565b905061214582826120fe565b919050565b600067ffffffffffffffff821115612165576121646120cf565b5b602082029050602081019050919050565b600080fd5b600061218e6121898461214a565b61212f565b905080838252602082019050602084028301858111156121b1576121b0612176565b5b835b818110156121da57806121c68882611e87565b8452602084019350506020810190506121b3565b5050509392505050565b600082601f8301126121f9576121f86120ca565b5b813561220984826020860161217b565b91505092915050565b600080fd5b600067ffffffffffffffff821115612232576122316120cf565b5b61223b82612034565b9050602081019050919050565b82818337600083830152505050565b600061226a61226584612217565b61212f565b90508281526020810184848401111561228657612285612212565b5b612291848285612248565b509392505050565b600082601f8301126122ae576122ad6120ca565b5b81356122be848260208601612257565b91505092915050565b600080600080600060a086880312156122e3576122e2611dfe565b5b60006122f188828901611e51565b955050602061230288828901611e51565b945050604086013567ffffffffffffffff81111561232357612322611e03565b5b61232f888289016121e4565b935050606086013567ffffffffffffffff8111156123505761234f611e03565b5b61235c888289016121e4565b925050608086013567ffffffffffffffff81111561237d5761237c611e03565b5b61238988828901612299565b9150509295509295909350565b6000806000606084860312156123af576123ae611dfe565b5b60006123bd86828701611e51565b93505060206123ce86828701611e51565b92505060406123df86828701611e87565b9150509250925092565b600067ffffffffffffffff821115612404576124036120cf565b5b602082029050602081019050919050565b6000612428612423846123e9565b61212f565b9050808382526020820190506020840283018581111561244b5761244a612176565b5b835b8181101561247457806124608882611e51565b84526020840193505060208101905061244d565b5050509392505050565b600082601f830112612493576124926120ca565b5b81356124a3848260208601612415565b91505092915050565b600080604083850312156124c3576124c2611dfe565b5b600083013567ffffffffffffffff8111156124e1576124e0611e03565b5b6124ed8582860161247e565b925050602083013567ffffffffffffffff81111561250e5761250d611e03565b5b61251a858286016121e4565b9150509250929050565b600081519050919050565b600082825260208201905092915050565b6000819050602082019050919050565b61255981611e66565b82525050565b600061256b8383612550565b60208301905092915050565b6000602082019050919050565b600061258f82612524565b612599818561252f565b93506125a483612540565b8060005b838110156125d55781516125bc888261255f565b97506125c783612577565b9250506001810190506125a8565b5085935050505092915050565b600060208201905081810360008301526125fc8184612584565b905092915050565b61260d81611f8b565b811461261857600080fd5b50565b60008135905061262a81612604565b92915050565b6000806040838503121561264757612646611dfe565b5b600061265585828601611e51565b92505060206126668582860161261b565b9150509250929050565b6000806040838503121561268757612686611dfe565b5b600061269585828601611e51565b92505060206126a685828601611e51565b9150509250929050565b600080600080600060a086880312156126cc576126cb611dfe565b5b60006126da88828901611e51565b95505060206126eb88828901611e51565b94505060406126fc88828901611e87565b935050606061270d88828901611e87565b925050608086013567ffffffffffffffff81111561272e5761272d611e03565b5b61273a88828901612299565b9150509295509295909350565b7f455243313135353a2062616c616e636520717565727920666f7220746865207a60008201527f65726f2061646472657373000000000000000000000000000000000000000000602082015250565b60006127a3602b83611ff9565b91506127ae82612747565b604082019050919050565b600060208201905081810360008301526127d281612796565b9050919050565b7f4e487b7100000000000000000000000000000000000000000000000000000000600052602260045260246000fd5b6000600282049050600182168061282057607f821691505b602082108103612833576128326127d9565b5b50919050565b7f455243313135353a207472616e736665722063616c6c6572206973206e6f742060008201527f6f776e6572206e6f7220617070726f7665640000000000000000000000000000602082015250565b6000612895603283611ff9565b91506128a082612839565b604082019050919050565b600060208201905081810360008301526128c481612888565b9050919050565b6000815190506128da81612604565b92915050565b6000602082840312156128f6576128f5611dfe565b5b6000612904848285016128cb565b91505092915050565b7f4f6e6c79207265676973746572656420696e766573746f72732063616e20706560008201527f72666f726d207468697320616374696f6e000000000000000000000000000000602082015250565b6000612969603183611ff9565b91506129748261290d565b604082019050919050565b600060208201905081810360008301526129988161295c565b9050919050565b7f526563697069656e74206d75737420626520612072656769737465726564206960008201527f6e766573746f7200000000000000000000000000000000000000000000000000602082015250565b60006129fb602783611ff9565b9150612a068261299f565b604082019050919050565b60006020820190508181036000830152612a2a816129ee565b9050919050565b7f4d696e696d756d206f662032302043465420726571756972656420746f20747260008201527f616e66657220676f7665726e616e6365204e4654000000000000000000000000602082015250565b6000612a8d603483611ff9565b9150612a9882612a31565b604082019050919050565b60006020820190508181036000830152612abc81612a80565b9050919050565b7f4e487b7100000000000000000000000000000000000000000000000000000000600052603260045260246000fd5b7f455243313135353a206163636f756e747320616e6420696473206c656e67746860008201527f206d69736d617463680000000000000000000000000000000000000000000000602082015250565b6000612b4e602983611ff9565b9150612b5982612af2565b604082019050919050565b60006020820190508181036000830152612b7d81612b41565b9050919050565b7f4e487b7100000000000000000000000000000000000000000000000000000000600052601160045260246000fd5b6000612bbe82611e66565b91507fffffffffffffffffffffffffffffffffffffffffffffffffffffffffffffffff8203612bf057612bef612b84565b5b600182019050919050565b7f4e6f7420656e6f756768204554482073656e7400000000000000000000000000600082015250565b6000612c31601383611ff9565b9150612c3c82612bfb565b602082019050919050565b60006020820190508181036000830152612c6081612c24565b9050919050565b7f4e487b7100000000000000000000000000000000000000000000000000000000600052601260045260246000fd5b6000612ca182611e66565b9150612cac83611e66565b925082612cbc57612cbb612c67565b5b828204905092915050565b7f4d696e696d756d206f662032302043465420726571756972656420746f206d6960008201527f6e7420676f7665726e616e6365204e4654000000000000000000000000000000602082015250565b6000612d23603183611ff9565b9150612d2e82612cc7565b604082019050919050565b60006020820190508181036000830152612d5281612d16565b9050919050565b7f455243313135353a2063616c6c6572206973206e6f74206f776e6572206e6f7260008201527f20617070726f7665640000000000000000000000000000000000000000000000602082015250565b6000612db5602983611ff9565b9150612dc082612d59565b604082019050919050565b60006020820190508181036000830152612de481612da8565b9050919050565b7f455243313135353a2069647320616e6420616d6f756e7473206c656e6774682060008201527f6d69736d61746368000000000000000000000000000000000000000000000000602082015250565b6000612e47602883611ff9565b9150612e5282612deb565b604082019050919050565b60006020820190508181036000830152612e7681612e3a565b9050919050565b7f455243313135353a207472616e7366657220746f20746865207a65726f20616460008201527f6472657373000000000000000000000000000000000000000000000000000000602082015250565b6000612ed9602583611ff9565b9150612ee482612e7d565b604082019050919050565b60006020820190508181036000830152612f0881612ecc565b9050919050565b7f455243313135353a20696e73756666696369656e742062616c616e636520666f60008201527f72207472616e7366657200000000000000000000000000000000000000000000602082015250565b6000612f6b602a83611ff9565b9150612f7682612f0f565b604082019050919050565b60006020820190508181036000830152612f9a81612f5e565b9050919050565b6000612fac82611e66565b9150612fb783611e66565b9250828201905080821115612fcf57612fce612b84565b5b92915050565b60006040820190508181036000830152612fef8185612584565b905081810360208301526130038184612584565b90509392505050565b7f455243313135353a206d696e7420746f20746865207a65726f2061646472657360008201527f7300000000000000000000000000000000000000000000000000000000000000602082015250565b6000613068602183611ff9565b91506130738261300c565b604082019050919050565b600060208201905081810360008301526130978161305b565b9050919050565b7f455243313135353a2073657474696e6720617070726f76616c2073746174757360008201527f20666f722073656c660000000000000000000000000000000000000000000000602082015250565b60006130fa602983611ff9565b91506131058261309e565b604082019050919050565b60006020820190508181036000830152613129816130ed565b9050919050565b60006040820190506131456000830185611edc565b6131526020830184611edc565b9392505050565b600081519050919050565b600082825260208201905092915050565b600061318082613159565b61318a8185613164565b935061319a81856020860161200a565b6131a381612034565b840191505092915050565b600060a0820190506131c360008301886120a0565b6131d060208301876120a0565b81810360408301526131e28186612584565b905081810360608301526131f68185612584565b9050818103608083015261320a8184613175565b90509695505050505050565b60008151905061322581611f32565b92915050565b60006020828403121561324157613240611dfe565b5b600061324f84828501613216565b91505092915050565b60008160e01c9050919050565b600060033d11156132845760046000803e613281600051613258565b90505b90565b600060443d1061331457613299611df4565b60043d036004823e80513d602482011167ffffffffffffffff821117156132c1575050613314565b808201805167ffffffffffffffff8111156132df5750505050613314565b80602083010160043d0385018111156132fc575050505050613314565b61330b826020018501866120fe565b82955050505050505b90565b7f455243313135353a207472616e7366657220746f206e6f6e204552433131353560008201527f526563656976657220696d706c656d656e746572000000000000000000000000602082015250565b6000613373603483611ff9565b915061337e82613317565b604082019050919050565b600060208201905081810360008301526133a281613366565b9050919050565b7f455243313135353a204552433131353552656365697665722072656a6563746560008201527f6420746f6b656e73000000000000000000000000000000000000000000000000602082015250565b6000613405602883611ff9565b9150613410826133a9565b604082019050919050565b60006020820190508181036000830152613434816133f8565b9050919050565b600060a08201905061345060008301886120a0565b61345d60208301876120a0565b61346a6040830186611edc565b6134776060830185611edc565b81810360808301526134898184613175565b9050969550505050505056fea26469706673582212201097b9d91f26c3806305e403d10a856db7e3edd34ce32fa5e97868729b46a8d064736f6c6343000810003368747470733a2f2f636861696e66756e642e6578616d706c652f6170692f746f6b656e2f7b69647d2e6a736f6e",
  "immutableReferences": {},
  "source": "// SPDX-License-Identifier: MIT\r\npragma solidity ^0.8.0;\r\nimport \"./ChainFundERC1155.sol\";\r\nimport \"@openzeppelin/contracts/token/ERC1155/ERC1155.sol\";\r\nimport \"@openzeppelin/contracts/utils/math/SafeMath.sol\";\r\n\r\ncontract Chainfundbatch is ERC1155 {\r\n    using SafeMath for uint256;\r\n    address public owner;\r\n    uint256 public constant CFTID = 0;\r\n    uint256 public constant NFTID = 1;\r\n    uint256 public constant ETHPerCFT = 0.1 ether;\r\n    address[] public registeredInvestors;\r\n    ChainFundERC1155 private CFE;\r\n\r\n    modifier onlyRegisteredInvestor() {\r\n        require(CFE.isInvestorRegistered(msg.sender), \"Only registered investors can perform this action\");\r\n        _;\r\n    }\r\n    constructor(address _erc1155Address) ERC1155(\"https://chainfund.example/api/token/{id}.json\") {\r\n        CFE = ChainFundERC1155(_erc1155Address);\r\n    }\r\n\r\n    function batchpurchase() external payable onlyRegisteredInvestor{\r\n        require(msg.value >= ETHPerCFT, \"Not enough ETH sent\");\r\n        uint256 cftAmount = msg.value / ETHPerCFT;\r\n        require(cftAmount >= 20, \"Minimum of 20 CFT required to mint governance NFT\");\r\n\r\n        uint256[] memory ids = new uint256[](2);\r\n        uint256[] memory amounts = new uint256[](2);\r\n        ids[0] = CFTID;\r\n        ids[1] = NFTID;\r\n        amounts[0] = cftAmount;\r\n        amounts[1] = 1;\r\n\r\n        _mintBatch(msg.sender, ids, amounts, \"\");\r\n    }\r\n\r\n        function transferCFTandNFT(address from, address to, uint256 CFTamount) external onlyRegisteredInvestor {\r\n        require(CFE.isInvestorRegistered(to), \"Recipient must be a registered investor\");\r\n        require(CFTamount >= 20, \"Minimum of 20 CFT required to tranfer governance NFT\");\r\n\r\n        uint256[] memory ids = new uint256[](2);\r\n        uint256[] memory amounts = new uint256[](2);\r\n\r\n        ids[0] = CFTID;\r\n        amounts[0] = CFTamount;\r\n        ids[1] = NFTID;\r\n        amounts[1] = 1;\r\n        /***Batch Tranfer***/\r\n        safeBatchTransferFrom(from, to, ids, amounts, \"\");\r\n    }\r\n\r\n    function getbalance(address user, uint256 id) public view returns(uint256){\r\n        return balanceOf(user, id);\r\n    }\r\n\r\n\r\n\r\n}",
  "sourcePath": "C:\\Users\\Prathap\\Desktop\\Node\\new92\\chainfund\\chainfund-contract\\contracts\\batch.sol",
  "compiler": {
    "name": "solc",
    "version": "0.8.16+commit.07a7930e.Emscripten.clang"
  },
  "schemaVersion": "3.4.16",
  "updatedAt": "2023-12-04T03:53:26.084Z",
  "networkType": "ethereum",
  "devdoc": {
    "kind": "dev",
    "methods": {
      "balanceOf(address,uint256)": {
        "details": "See {IERC1155-balanceOf}. Requirements: - `account` cannot be the zero address."
      },
      "balanceOfBatch(address[],uint256[])": {
        "details": "See {IERC1155-balanceOfBatch}. Requirements: - `accounts` and `ids` must have the same length."
      },
      "isApprovedForAll(address,address)": {
        "details": "See {IERC1155-isApprovedForAll}."
      },
      "safeBatchTransferFrom(address,address,uint256[],uint256[],bytes)": {
        "details": "See {IERC1155-safeBatchTransferFrom}."
      },
      "safeTransferFrom(address,address,uint256,uint256,bytes)": {
        "details": "See {IERC1155-safeTransferFrom}."
      },
      "setApprovalForAll(address,bool)": {
        "details": "See {IERC1155-setApprovalForAll}."
      },
      "supportsInterface(bytes4)": {
        "details": "See {IERC165-supportsInterface}."
      },
      "uri(uint256)": {
        "details": "See {IERC1155MetadataURI-uri}. This implementation returns the same URI for *all* token types. It relies on the token type ID substitution mechanism https://eips.ethereum.org/EIPS/eip-1155#metadata[defined in the EIP]. Clients calling this function must replace the `\\{id\\}` substring with the actual token type ID."
      }
    },
    "version": 1
  },
  "userdoc": {
    "kind": "user",
    "methods": {},
    "version": 1
  }
}