{
  "contractName": "ChainFundMultiToken",
  "abi": [
    {
      "inputs": [
        {
          "internalType": "address",
          "name": "_erc20Address",
          "type": "address"
        },
        {
          "internalType": "address",
          "name": "_erc721Address",
          "type": "address"
        }
      ],
      "stateMutability": "nonpayable",
      "type": "constructor"
    },
    {
      "anonymous": false,
      "inputs": [
        {
          "indexed": true,
          "internalType": "address",
          "name": "account",
          "type": "address"
        },
        {
          "indexed": true,
          "internalType": "address",
          "name": "operator",
          "type": "address"
        },
        {
          "indexed": false,
          "internalType": "bool",
          "name": "approved",
          "type": "bool"
        }
      ],
      "name": "ApprovalForAll",
      "type": "event"
    },
    {
      "anonymous": false,
      "inputs": [
        {
          "indexed": true,
          "internalType": "address",
          "name": "operator",
          "type": "address"
        },
        {
          "indexed": true,
          "internalType": "address",
          "name": "from",
          "type": "address"
        },
        {
          "indexed": true,
          "internalType": "address",
          "name": "to",
          "type": "address"
        },
        {
          "indexed": false,
          "internalType": "uint256[]",
          "name": "ids",
          "type": "uint256[]"
        },
        {
          "indexed": false,
          "internalType": "uint256[]",
          "name": "values",
          "type": "uint256[]"
        }
      ],
      "name": "TransferBatch",
      "type": "event"
    },
    {
      "anonymous": false,
      "inputs": [
        {
          "indexed": true,
          "internalType": "address",
          "name": "operator",
          "type": "address"
        },
        {
          "indexed": true,
          "internalType": "address",
          "name": "from",
          "type": "address"
        },
        {
          "indexed": true,
          "internalType": "address",
          "name": "to",
          "type": "address"
        },
        {
          "indexed": false,
          "internalType": "uint256",
          "name": "id",
          "type": "uint256"
        },
        {
          "indexed": false,
          "internalType": "uint256",
          "name": "value",
          "type": "uint256"
        }
      ],
      "name": "TransferSingle",
      "type": "event"
    },
    {
      "anonymous": false,
      "inputs": [
        {
          "indexed": false,
          "internalType": "string",
          "name": "value",
          "type": "string"
        },
        {
          "indexed": true,
          "internalType": "uint256",
          "name": "id",
          "type": "uint256"
        }
      ],
      "name": "URI",
      "type": "event"
    },
    {
      "inputs": [],
      "name": "CFTID",
      "outputs": [
        {
          "internalType": "uint256",
          "name": "",
          "type": "uint256"
        }
      ],
      "stateMutability": "view",
      "type": "function"
    },
    {
      "inputs": [],
      "name": "ETHPerCFT",
      "outputs": [
        {
          "internalType": "uint256",
          "name": "",
          "type": "uint256"
        }
      ],
      "stateMutability": "view",
      "type": "function"
    },
    {
      "inputs": [],
      "name": "NFTID",
      "outputs": [
        {
          "internalType": "uint256",
          "name": "",
          "type": "uint256"
        }
      ],
      "stateMutability": "view",
      "type": "function"
    },
    {
      "inputs": [
        {
          "internalType": "address",
          "name": "account",
          "type": "address"
        },
        {
          "internalType": "uint256",
          "name": "id",
          "type": "uint256"
        }
      ],
      "name": "balanceOf",
      "outputs": [
        {
          "internalType": "uint256",
          "name": "",
          "type": "uint256"
        }
      ],
      "stateMutability": "view",
      "type": "function"
    },
    {
      "inputs": [
        {
          "internalType": "address[]",
          "name": "accounts",
          "type": "address[]"
        },
        {
          "internalType": "uint256[]",
          "name": "ids",
          "type": "uint256[]"
        }
      ],
      "name": "balanceOfBatch",
      "outputs": [
        {
          "internalType": "uint256[]",
          "name": "",
          "type": "uint256[]"
        }
      ],
      "stateMutability": "view",
      "type": "function"
    },
    {
      "inputs": [],
      "name": "btcratio",
      "outputs": [
        {
          "internalType": "uint256",
          "name": "",
          "type": "uint256"
        }
      ],
      "stateMutability": "view",
      "type": "function"
    },
    {
      "inputs": [
        {
          "internalType": "address",
          "name": "account",
          "type": "address"
        },
        {
          "internalType": "address",
          "name": "operator",
          "type": "address"
        }
      ],
      "name": "isApprovedForAll",
      "outputs": [
        {
          "internalType": "bool",
          "name": "",
          "type": "bool"
        }
      ],
      "stateMutability": "view",
      "type": "function"
    },
    {
      "inputs": [],
      "name": "owner",
      "outputs": [
        {
          "internalType": "address",
          "name": "",
          "type": "address"
        }
      ],
      "stateMutability": "view",
      "type": "function"
    },
    {
      "inputs": [
        {
          "internalType": "uint256",
          "name": "",
          "type": "uint256"
        }
      ],
      "name": "registeredInvestors",
      "outputs": [
        {
          "internalType": "address",
          "name": "",
          "type": "address"
        }
      ],
      "stateMutability": "view",
      "type": "function"
    },
    {
      "inputs": [
        {
          "internalType": "address",
          "name": "from",
          "type": "address"
        },
        {
          "internalType": "address",
          "name": "to",
          "type": "address"
        },
        {
          "internalType": "uint256[]",
          "name": "ids",
          "type": "uint256[]"
        },
        {
          "internalType": "uint256[]",
          "name": "amounts",
          "type": "uint256[]"
        },
        {
          "internalType": "bytes",
          "name": "data",
          "type": "bytes"
        }
      ],
      "name": "safeBatchTransferFrom",
      "outputs": [],
      "stateMutability": "nonpayable",
      "type": "function"
    },
    {
      "inputs": [
        {
          "internalType": "address",
          "name": "from",
          "type": "address"
        },
        {
          "internalType": "address",
          "name": "to",
          "type": "address"
        },
        {
          "internalType": "uint256",
          "name": "id",
          "type": "uint256"
        },
        {
          "internalType": "uint256",
          "name": "amount",
          "type": "uint256"
        },
        {
          "internalType": "bytes",
          "name": "data",
          "type": "bytes"
        }
      ],
      "name": "safeTransferFrom",
      "outputs": [],
      "stateMutability": "nonpayable",
      "type": "function"
    },
    {
      "inputs": [
        {
          "internalType": "address",
          "name": "operator",
          "type": "address"
        },
        {
          "internalType": "bool",
          "name": "approved",
          "type": "bool"
        }
      ],
      "name": "setApprovalForAll",
      "outputs": [],
      "stateMutability": "nonpayable",
      "type": "function"
    },
    {
      "inputs": [
        {
          "internalType": "bytes4",
          "name": "interfaceId",
          "type": "bytes4"
        }
      ],
      "name": "supportsInterface",
      "outputs": [
        {
          "internalType": "bool",
          "name": "",
          "type": "bool"
        }
      ],
      "stateMutability": "view",
      "type": "function"
    },
    {
      "inputs": [
        {
          "internalType": "uint256",
          "name": "",
          "type": "uint256"
        }
      ],
      "name": "uri",
      "outputs": [
        {
          "internalType": "string",
          "name": "",
          "type": "string"
        }
      ],
      "stateMutability": "view",
      "type": "function"
    },
    {
      "inputs": [],
      "name": "usdtratio",
      "outputs": [
        {
          "internalType": "uint256",
          "name": "",
          "type": "uint256"
        }
      ],
      "stateMutability": "view",
      "type": "function"
    },
    {
      "inputs": [],
      "name": "initializeProposals",
      "outputs": [],
      "stateMutability": "nonpayable",
      "type": "function"
    },
    {
      "inputs": [],
      "name": "registerInvestor",
      "outputs": [],
      "stateMutability": "nonpayable",
      "type": "function"
    },
    {
      "inputs": [
        {
          "internalType": "uint256",
          "name": "toProposal",
          "type": "uint256"
        }
      ],
      "name": "vote",
      "outputs": [],
      "stateMutability": "nonpayable",
      "type": "function"
    },
    {
      "inputs": [],
      "name": "getwinningproposal",
      "outputs": [
        {
          "internalType": "uint256",
          "name": "winningProposal",
          "type": "uint256"
        }
      ],
      "stateMutability": "view",
      "type": "function"
    },
    {
      "inputs": [],
      "name": "executeProposal",
      "outputs": [],
      "stateMutability": "nonpayable",
      "type": "function"
    },
    {
      "inputs": [],
      "name": "getCFTComposition",
      "outputs": [
        {
          "internalType": "uint256",
          "name": "",
          "type": "uint256"
        },
        {
          "internalType": "uint256",
          "name": "",
          "type": "uint256"
        }
      ],
      "stateMutability": "view",
      "type": "function"
    },
    {
      "inputs": [
        {
          "internalType": "address",
          "name": "investor",
          "type": "address"
        }
      ],
      "name": "isInvestorRegistered",
      "outputs": [
        {
          "internalType": "bool",
          "name": "",
          "type": "bool"
        }
      ],
      "stateMutability": "view",
      "type": "function"
    },
    {
      "inputs": [],
      "name": "buyCFT",
      "outputs": [],
      "stateMutability": "payable",
      "type": "function"
    },
    {
      "inputs": [
        {
          "internalType": "address",
          "name": "user",
          "type": "address"
        }
      ],
      "name": "CFTbalance",
      "outputs": [
        {
          "internalType": "uint256",
          "name": "",
          "type": "uint256"
        }
      ],
      "stateMutability": "view",
      "type": "function"
    },
    {
      "inputs": [
        {
          "internalType": "address",
          "name": "to",
          "type": "address"
        },
        {
          "internalType": "uint256",
          "name": "cftAmount",
          "type": "uint256"
        }
      ],
      "name": "transferCFT",
      "outputs": [],
      "stateMutability": "nonpayable",
      "type": "function"
    },
    {
      "inputs": [
        {
          "internalType": "uint256",
          "name": "cftAmount",
          "type": "uint256"
        }
      ],
      "name": "withdraw",
      "outputs": [],
      "stateMutability": "nonpayable",
      "type": "function"
    },
    {
      "inputs": [],
      "name": "totalCFTSupply",
      "outputs": [
        {
          "internalType": "uint256",
          "name": "",
          "type": "uint256"
        }
      ],
      "stateMutability": "view",
      "type": "function"
    },
    {
      "inputs": [],
      "name": "distributeDividends",
      "outputs": [],
      "stateMutability": "nonpayable",
      "type": "function"
    },
    {
      "inputs": [
        {
          "internalType": "address",
          "name": "user",
          "type": "address"
        }
      ],
      "name": "getGovernanceNFT",
      "outputs": [],
      "stateMutability": "nonpayable",
      "type": "function"
    },
    {
      "inputs": [
        {
          "internalType": "address",
          "name": "user",
          "type": "address"
        }
      ],
      "name": "hasGovernanceNFT",
      "outputs": [
        {
          "internalType": "bool",
          "name": "",
          "type": "bool"
        }
      ],
      "stateMutability": "view",
      "type": "function"
    },
    {
      "inputs": [],
      "name": "batchpurchase",
      "outputs": [],
      "stateMutability": "payable",
      "type": "function"
    },
    {
      "inputs": [
        {
          "internalType": "address",
          "name": "from",
          "type": "address"
        },
        {
          "internalType": "address",
          "name": "to",
          "type": "address"
        },
        {
          "internalType": "uint256",
          "name": "CFTamount",
          "type": "uint256"
        }
      ],
      "name": "transferCFTandNFT",
      "outputs": [],
      "stateMutability": "nonpayable",
      "type": "function"
    },
    {
      "inputs": [
        {
          "internalType": "address",
          "name": "user",
          "type": "address"
        },
        {
          "internalType": "uint256",
          "name": "tokenID",
          "type": "uint256"
        }
      ],
      "name": "batchbalance",
      "outputs": [
        {
          "internalType": "uint256",
          "name": "",
          "type": "uint256"
        }
      ],
      "stateMutability": "view",
      "type": "function"
    }
  ],
  "bytecode": "0x6080604052603260055560326006553480156200001b57600080fd5b506040516200561d3803806200561d8339818101604052810190620000419190620001b7565b6040518060600160405280602d8152602001620055f0602d91396200006c816200013860201b60201c565b5033600360006101000a81548173ffffffffffffffffffffffffffffffffffffffff021916908373ffffffffffffffffffffffffffffffffffffffff16021790555081600760006101000a81548173ffffffffffffffffffffffffffffffffffffffff021916908373ffffffffffffffffffffffffffffffffffffffff16021790555080600860006101000a81548173ffffffffffffffffffffffffffffffffffffffff021916908373ffffffffffffffffffffffffffffffffffffffff16021790555050506200055f565b806002908162000149919062000478565b5050565b600080fd5b600073ffffffffffffffffffffffffffffffffffffffff82169050919050565b60006200017f8262000152565b9050919050565b620001918162000172565b81146200019d57600080fd5b50565b600081519050620001b18162000186565b92915050565b60008060408385031215620001d157620001d06200014d565b5b6000620001e185828601620001a0565b9250506020620001f485828601620001a0565b9150509250929050565b600081519050919050565b7f4e487b7100000000000000000000000000000000000000000000000000000000600052604160045260246000fd5b7f4e487b7100000000000000000000000000000000000000000000000000000000600052602260045260246000fd5b600060028204905060018216806200028057607f821691505b60208210810362000296576200029562000238565b5b50919050565b60008190508160005260206000209050919050565b60006020601f8301049050919050565b600082821b905092915050565b600060088302620003007fffffffffffffffffffffffffffffffffffffffffffffffffffffffffffffffff82620002c1565b6200030c8683620002c1565b95508019841693508086168417925050509392505050565b6000819050919050565b6000819050919050565b600062000359620003536200034d8462000324565b6200032e565b62000324565b9050919050565b6000819050919050565b620003758362000338565b6200038d620003848262000360565b848454620002ce565b825550505050565b600090565b620003a462000395565b620003b18184846200036a565b505050565b5b81811015620003d957620003cd6000826200039a565b600181019050620003b7565b5050565b601f8211156200042857620003f2816200029c565b620003fd84620002b1565b810160208510156200040d578190505b620004256200041c85620002b1565b830182620003b6565b50505b505050565b600082821c905092915050565b60006200044d600019846008026200042d565b1980831691505092915050565b60006200046883836200043a565b9150826002028217905092915050565b6200048382620001fe565b67ffffffffffffffff8111156200049f576200049e62000209565b5b620004ab825462000267565b620004b8828285620003dd565b600060209050601f831160018114620004f05760008415620004db578287015190505b620004e785826200045a565b86555062000557565b601f19841662000500866200029c565b60005b828110156200052a5784890151825560018201915060208501945060208101905062000503565b868310156200054a578489015162000546601f8916826200043a565b8355505b6001600288020188555050505b505050505050565b615081806200056f6000396000f3fe6080604052600436106101ed5760003560e01c806357eaf86d1161010d57806395544ae6116100a0578063cfa934961161006f578063cfa9349614610697578063e3a33a6d146106d4578063e985e9c5146106ff578063ec9d450a1461073c578063f242432a14610767576101ed565b806395544ae6146105cb5780639c5f8385146105f4578063a22cb46514610631578063b7704c491461065a576101ed565b806378a3183f116100dc57806378a3183f146105615780638001aef51461058c578063843d9984146105965780638da5cb5b146105a0576101ed565b806357eaf86d146104b75780635848c95c146104e25780635bdaa2c81461050d5780636afa174f14610538576101ed565b80632e1a7d4d116101855780633df5226d116101545780633df5226d146103fa57806344b1c632146104375780634b5e8d63146104635780634e1273f41461047a576101ed565b80632e1a7d4d146103685780632eb2c2d614610391578063373058b8146103ba57806339e56307146103d1576101ed565b8063089670d7116101c1578063089670d7146102ac5780630e89341c146102c35780631da7180d146103005780632df9f5491461033d576101ed565b8062fdd58e146101f25780630121b93f1461022f57806301ffc9a71461025857806303c8330214610295575b600080fd5b3480156101fe57600080fd5b50610219600480360381019061021491906133f4565b610790565b6040516102269190613443565b60405180910390f35b34801561023b57600080fd5b506102566004803603810190610251919061345e565b610858565b005b34801561026457600080fd5b5061027f600480360381019061027a91906134e3565b6109e9565b60405161028c919061352b565b60405180910390f35b3480156102a157600080fd5b506102aa610acb565b005b3480156102b857600080fd5b506102c1610e12565b005b3480156102cf57600080fd5b506102ea60048036038101906102e5919061345e565b610ec6565b6040516102f791906135d6565b60405180910390f35b34801561030c57600080fd5b506103276004803603810190610322919061345e565b610f5a565b6040516103349190613607565b60405180910390f35b34801561034957600080fd5b50610352610f99565b60405161035f9190613443565b60405180910390f35b34801561037457600080fd5b5061038f600480360381019061038a919061345e565b610f9e565b005b34801561039d57600080fd5b506103b860048036038101906103b3919061381f565b6111f9565b005b3480156103c657600080fd5b506103cf61129a565b005b3480156103dd57600080fd5b506103f860048036038101906103f391906138ee565b611411565b005b34801561040657600080fd5b50610421600480360381019061041c91906133f4565b6115e3565b60405161042e9190613443565b60405180910390f35b34801561044357600080fd5b5061044c6115f7565b60405161045a929190613941565b60405180910390f35b34801561046f57600080fd5b50610478611608565b005b34801561048657600080fd5b506104a1600480360381019061049c9190613a2d565b6117e9565b6040516104ae9190613b63565b60405180910390f35b3480156104c357600080fd5b506104cc611902565b6040516104d99190613443565b60405180910390f35b3480156104ee57600080fd5b506104f7611908565b6040516105049190613443565b60405180910390f35b34801561051957600080fd5b5061052261190d565b60405161052f9190613443565b60405180910390f35b34801561054457600080fd5b5061055f600480360381019061055a91906133f4565b611919565b005b34801561056d57600080fd5b50610576611a8d565b6040516105839190613443565b60405180910390f35b610594611a93565b005b61059e611c1f565b005b3480156105ac57600080fd5b506105b5611e51565b6040516105c29190613607565b60405180910390f35b3480156105d757600080fd5b506105f260048036038101906105ed9190613b85565b611e77565b005b34801561060057600080fd5b5061061b60048036038101906106169190613b85565b611ff5565b604051610628919061352b565b60405180910390f35b34801561063d57600080fd5b5061065860048036038101906106539190613bde565b6120a3565b005b34801561066657600080fd5b50610681600480360381019061067c9190613b85565b6120b9565b60405161068e9190613443565b60405180910390f35b3480156106a357600080fd5b506106be60048036038101906106b99190613b85565b61215e565b6040516106cb919061352b565b60405180910390f35b3480156106e057600080fd5b506106e9612203565b6040516106f69190613443565b60405180910390f35b34801561070b57600080fd5b5061072660048036038101906107219190613c1e565b61235e565b604051610733919061352b565b60405180910390f35b34801561074857600080fd5b506107516123f2565b60405161075e9190613443565b60405180910390f35b34801561077357600080fd5b5061078e60048036038101906107899190613c5e565b61248a565b005b60008073ffffffffffffffffffffffffffffffffffffffff168373ffffffffffffffffffffffffffffffffffffffff1603610800576040517f08c379a00000000000000000000000000000000000000000000000000000000081526004016107f790613d67565b60405180910390fd5b60008083815260200190815260200160002060008473ffffffffffffffffffffffffffffffffffffffff1673ffffffffffffffffffffffffffffffffffffffff16815260200190815260200160002054905092915050565b61086133611ff5565b6108a0576040517f08c379a000000000000000000000000000000000000000000000000000000000815260040161089790613df9565b60405180910390fd5b6000600960003373ffffffffffffffffffffffffffffffffffffffff1673ffffffffffffffffffffffffffffffffffffffff16815260200190815260200160002090508060010160009054906101000a900460ff1615610935576040517f08c379a000000000000000000000000000000000000000000000000000000000815260040161092c90613e8b565b60405180910390fd5b60008214806109445750600182145b610983576040517f08c379a000000000000000000000000000000000000000000000000000000000815260040161097a90613f1d565b60405180910390fd5b60018160010160006101000a81548160ff0219169083151502179055508181600201819055508060000154600c83815481106109c2576109c1613f3d565b5b9060005260206000200160000160008282546109de9190613f9b565b925050819055505050565b60007fd9b67a26000000000000000000000000000000000000000000000000000000007bffffffffffffffffffffffffffffffffffffffffffffffffffffffff1916827bffffffffffffffffffffffffffffffffffffffffffffffffffffffff19161480610ab457507f0e89341c000000000000000000000000000000000000000000000000000000007bffffffffffffffffffffffffffffffffffffffffffffffffffffffff1916827bffffffffffffffffffffffffffffffffffffffffffffffffffffffff1916145b80610ac45750610ac38261252b565b5b9050919050565b600360009054906101000a900473ffffffffffffffffffffffffffffffffffffffff1673ffffffffffffffffffffffffffffffffffffffff163373ffffffffffffffffffffffffffffffffffffffff1614610b5b576040517f08c379a0000000000000000000000000000000000000000000000000000000008152600401610b529061401b565b60405180910390fd5b6000600760009054906101000a900473ffffffffffffffffffffffffffffffffffffffff1673ffffffffffffffffffffffffffffffffffffffff1663ec9d450a6040518163ffffffff1660e01b8152600401602060405180830381865afa158015610bca573d6000803e3d6000fd5b505050506040513d601f19601f82011682018060405250810190610bee9190614050565b905060006064600583610c01919061407d565b610c0b9190614106565b905060008111610c50576040517f08c379a0000000000000000000000000000000000000000000000000000000008152600401610c47906141a9565b60405180910390fd5b60005b600480549050811015610e0d57600060048281548110610c7657610c75613f3d565b5b9060005260206000200160009054906101000a900473ffffffffffffffffffffffffffffffffffffffff1690506000600760009054906101000a900473ffffffffffffffffffffffffffffffffffffffff1673ffffffffffffffffffffffffffffffffffffffff166312cae7af836040518263ffffffff1660e01b8152600401610d009190613607565b602060405180830381865afa158015610d1d573d6000803e3d6000fd5b505050506040513d601f19601f82011682018060405250810190610d419190614050565b90506000858583610d52919061407d565b610d5c9190614106565b90506000811115610df757600760009054906101000a900473ffffffffffffffffffffffffffffffffffffffff1673ffffffffffffffffffffffffffffffffffffffff166390b3586782856040518363ffffffff1660e01b8152600401610dc49291906141c9565b600060405180830381600087803b158015610dde57600080fd5b505af1158015610df2573d6000803e3d6000fd5b505050505b5050508080610e05906141f2565b915050610c53565b505050565b610e1b3361215e565b610e5a576040517f08c379a0000000000000000000000000000000000000000000000000000000008152600401610e5190613df9565b60405180910390fd5b600c600a90806001815401808255809150506001900390600052602060002001600090919091909150600082015481600001555050600c600b90806001815401808255809150506001900390600052602060002001600090919091909150600082015481600001555050565b606060028054610ed590614269565b80601f0160208091040260200160405190810160405280929190818152602001828054610f0190614269565b8015610f4e5780601f10610f2357610100808354040283529160200191610f4e565b820191906000526020600020905b815481529060010190602001808311610f3157829003601f168201915b50505050509050919050565b60048181548110610f6a57600080fd5b906000526020600020016000915054906101000a900473ffffffffffffffffffffffffffffffffffffffff1681565b600181565b610fa733611ff5565b610fe6576040517f08c379a0000000000000000000000000000000000000000000000000000000008152600401610fdd90613df9565b60405180910390fd5b80600760009054906101000a900473ffffffffffffffffffffffffffffffffffffffff1673ffffffffffffffffffffffffffffffffffffffff166312cae7af336040518263ffffffff1660e01b81526004016110429190613607565b602060405180830381865afa15801561105f573d6000803e3d6000fd5b505050506040513d601f19601f820116820180604052508101906110839190614050565b10156110c4576040517f08c379a00000000000000000000000000000000000000000000000000000000081526004016110bb906142e6565b60405180910390fd5b6000670de0b6b3a7640000826110da919061407d565b90508047101561111f576040517f08c379a000000000000000000000000000000000000000000000000000000000815260040161111690614352565b60405180910390fd5b600760009054906101000a900473ffffffffffffffffffffffffffffffffffffffff1673ffffffffffffffffffffffffffffffffffffffff1663c49faa9583336040518363ffffffff1660e01b815260040161117c9291906141c9565b600060405180830381600087803b15801561119657600080fd5b505af11580156111aa573d6000803e3d6000fd5b505050503373ffffffffffffffffffffffffffffffffffffffff166108fc829081150290604051600060405180830381858888f193505050501580156111f4573d6000803e3d6000fd5b505050565b611201612595565b73ffffffffffffffffffffffffffffffffffffffff168573ffffffffffffffffffffffffffffffffffffffff161480611247575061124685611241612595565b61235e565b5b611286576040517f08c379a000000000000000000000000000000000000000000000000000000000815260040161127d906143e4565b60405180910390fd5b611293858585858561259d565b5050505050565b600360009054906101000a900473ffffffffffffffffffffffffffffffffffffffff1673ffffffffffffffffffffffffffffffffffffffff163373ffffffffffffffffffffffffffffffffffffffff161461132a576040517f08c379a00000000000000000000000000000000000000000000000000000000081526004016113219061401b565b60405180910390fd5b6000611334612203565b90507fffffffffffffffffffffffffffffffffffffffffffffffffffffffffffffffff8103611398576040517f08c379a000000000000000000000000000000000000000000000000000000000815260040161138f90614450565b60405180910390fd5b600081036113d957600a600560008282546113b39190613f9b565b92505081905550600a600660008282546113cd9190614470565b9250508190555061140e565b600a600560008282546113ec9190614470565b92505081905550600a600660008282546114069190613f9b565b925050819055505b50565b61141a82611ff5565b611459576040517f08c379a000000000000000000000000000000000000000000000000000000000815260040161145090614516565b60405180910390fd5b603281101561149d576040517f08c379a0000000000000000000000000000000000000000000000000000000008152600401611494906145a8565b60405180910390fd5b6000600267ffffffffffffffff8111156114ba576114b9613627565b5b6040519080825280602002602001820160405280156114e85781602001602082028036833780820191505090505b5090506000600267ffffffffffffffff81111561150857611507613627565b5b6040519080825280602002602001820160405280156115365781602001602082028036833780820191505090505b50905060008260008151811061154f5761154e613f3d565b5b60200260200101818152505082816000815181106115705761156f613f3d565b5b60200260200101818152505060018260018151811061159257611591613f3d565b5b6020026020010181815250506001816001815181106115b4576115b3613f3d565b5b6020026020010181815250506115dc85858484604051806020016040528060008152506111f9565b5050505050565b60006115ef8383610790565b905092915050565b600080600554600654915091509091565b61161133611ff5565b15611651576040517f08c379a000000000000000000000000000000000000000000000000000000000815260040161164890614614565b60405180910390fd5b6004339080600181540180825580915050600190039060005260206000200160009091909190916101000a81548173ffffffffffffffffffffffffffffffffffffffff021916908373ffffffffffffffffffffffffffffffffffffffff160217905550600760009054906101000a900473ffffffffffffffffffffffffffffffffffffffff1673ffffffffffffffffffffffffffffffffffffffff166390b358676000336040518363ffffffff1660e01b8152600401611712929190614679565b600060405180830381600087803b15801561172c57600080fd5b505af1158015611740573d6000803e3d6000fd5b505050506000600960003373ffffffffffffffffffffffffffffffffffffffff1673ffffffffffffffffffffffffffffffffffffffff16815260200190815260200160002060010160006101000a81548160ff0219169083151502179055506000600960003373ffffffffffffffffffffffffffffffffffffffff1673ffffffffffffffffffffffffffffffffffffffff16815260200190815260200160002060000181905550565b6060815183511461182f576040517f08c379a000000000000000000000000000000000000000000000000000000000815260040161182690614714565b60405180910390fd5b6000835167ffffffffffffffff81111561184c5761184b613627565b5b60405190808252806020026020018201604052801561187a5781602001602082028036833780820191505090505b50905060005b84518110156118f7576118c785828151811061189f5761189e613f3d565b5b60200260200101518583815181106118ba576118b9613f3d565b5b6020026020010151610790565b8282815181106118da576118d9613f3d565b5b602002602001018181525050806118f0906141f2565b9050611880565b508091505092915050565b60055481565b600081565b670de0b6b3a764000081565b61192233611ff5565b611961576040517f08c379a000000000000000000000000000000000000000000000000000000000815260040161195890613df9565b60405180910390fd5b61196a82611ff5565b6119a9576040517f08c379a00000000000000000000000000000000000000000000000000000000081526004016119a090614516565b60405180910390fd5b600760009054906101000a900473ffffffffffffffffffffffffffffffffffffffff1673ffffffffffffffffffffffffffffffffffffffff16637c524ffc3384846040518463ffffffff1660e01b8152600401611a0893929190614734565b600060405180830381600087803b158015611a2257600080fd5b505af1158015611a36573d6000803e3d6000fd5b50505050611a43336120b9565b600960003373ffffffffffffffffffffffffffffffffffffffff1673ffffffffffffffffffffffffffffffffffffffff168152602001908152602001600020600001819055505050565b60065481565b611a9c33611ff5565b611adb576040517f08c379a0000000000000000000000000000000000000000000000000000000008152600401611ad290613df9565b60405180910390fd5b670de0b6b3a7640000341015611b26576040517f08c379a0000000000000000000000000000000000000000000000000000000008152600401611b1d906147b7565b60405180910390fd5b6000670de0b6b3a764000034611b3c9190614106565b9050600760009054906101000a900473ffffffffffffffffffffffffffffffffffffffff1673ffffffffffffffffffffffffffffffffffffffff166390b3586782336040518363ffffffff1660e01b8152600401611b9b9291906141c9565b600060405180830381600087803b158015611bb557600080fd5b505af1158015611bc9573d6000803e3d6000fd5b50505050611bd6336120b9565b600960003373ffffffffffffffffffffffffffffffffffffffff1673ffffffffffffffffffffffffffffffffffffffff1681526020019081526020016000206000018190555050565b611c2833611ff5565b611c67576040517f08c379a0000000000000000000000000000000000000000000000000000000008152600401611c5e90613df9565b60405180910390fd5b670de0b6b3a7640000341015611cb2576040517f08c379a0000000000000000000000000000000000000000000000000000000008152600401611ca9906147b7565b60405180910390fd5b6000670de0b6b3a764000034611cc89190614106565b90506032811015611d0e576040517f08c379a0000000000000000000000000000000000000000000000000000000008152600401611d0590614849565b60405180910390fd5b6000600267ffffffffffffffff811115611d2b57611d2a613627565b5b604051908082528060200260200182016040528015611d595781602001602082028036833780820191505090505b5090506000600267ffffffffffffffff811115611d7957611d78613627565b5b604051908082528060200260200182016040528015611da75781602001602082028036833780820191505090505b509050600082600081518110611dc057611dbf613f3d565b5b602002602001018181525050600182600181518110611de257611de1613f3d565b5b6020026020010181815250508281600081518110611e0357611e02613f3d565b5b602002602001018181525050600181600181518110611e2557611e24613f3d565b5b602002602001018181525050611e4c338383604051806020016040528060008152506128be565b505050565b600360009054906101000a900473ffffffffffffffffffffffffffffffffffffffff1681565b611e8033611ff5565b611ebf576040517f08c379a0000000000000000000000000000000000000000000000000000000008152600401611eb690613df9565b60405180910390fd5b611ec881611ff5565b611f07576040517f08c379a0000000000000000000000000000000000000000000000000000000008152600401611efe90614516565b60405180910390fd5b6032611f12826120b9565b1015611f53576040517f08c379a0000000000000000000000000000000000000000000000000000000008152600401611f4a906148db565b60405180910390fd5b600860009054906101000a900473ffffffffffffffffffffffffffffffffffffffff1673ffffffffffffffffffffffffffffffffffffffff1663c6ef0a5b826040518263ffffffff1660e01b8152600401611fae9190613607565b6020604051808303816000875af1158015611fcd573d6000803e3d6000fd5b505050506040513d601f19601f82011682018060405250810190611ff19190614050565b5050565b600080600090505b600480549050811015612098578273ffffffffffffffffffffffffffffffffffffffff166004828154811061203557612034613f3d565b5b9060005260206000200160009054906101000a900473ffffffffffffffffffffffffffffffffffffffff1673ffffffffffffffffffffffffffffffffffffffff160361208557600191505061209e565b8080612090906141f2565b915050611ffd565b50600090505b919050565b6120b56120ae612595565b8383612aea565b5050565b6000600760009054906101000a900473ffffffffffffffffffffffffffffffffffffffff1673ffffffffffffffffffffffffffffffffffffffff166370a08231836040518263ffffffff1660e01b81526004016121169190613607565b602060405180830381865afa158015612133573d6000803e3d6000fd5b505050506040513d601f19601f820116820180604052508101906121579190614050565b9050919050565b6000600860009054906101000a900473ffffffffffffffffffffffffffffffffffffffff1673ffffffffffffffffffffffffffffffffffffffff1663b0dfc786836040518263ffffffff1660e01b81526004016121bb9190613607565b602060405180830381865afa1580156121d8573d6000803e3d6000fd5b505050506040513d601f19601f820116820180604052508101906121fc9190614910565b9050919050565b6000806002600760009054906101000a900473ffffffffffffffffffffffffffffffffffffffff1673ffffffffffffffffffffffffffffffffffffffff1663ec9d450a6040518163ffffffff1660e01b8152600401602060405180830381865afa158015612275573d6000803e3d6000fd5b505050506040513d601f19601f820116820180604052508101906122999190614050565b6122a39190614106565b90506000805b600c805490508110156123475781600c82815481106122cb576122ca613f3d565b5b9060005260206000200160000154118015612307575082600c82815481106122f6576122f5613f3d565b5b906000526020600020016000015410155b1561233457600c81815481106123205761231f613f3d565b5b906000526020600020016000015491508093505b808061233f906141f2565b9150506122a9565b50818110156123595761235861493d565b5b505090565b6000600160008473ffffffffffffffffffffffffffffffffffffffff1673ffffffffffffffffffffffffffffffffffffffff16815260200190815260200160002060008373ffffffffffffffffffffffffffffffffffffffff1673ffffffffffffffffffffffffffffffffffffffff16815260200190815260200160002060009054906101000a900460ff16905092915050565b6000600760009054906101000a900473ffffffffffffffffffffffffffffffffffffffff1673ffffffffffffffffffffffffffffffffffffffff1663ec9d450a6040518163ffffffff1660e01b8152600401602060405180830381865afa158015612461573d6000803e3d6000fd5b505050506040513d601f19601f820116820180604052508101906124859190614050565b905090565b612492612595565b73ffffffffffffffffffffffffffffffffffffffff168573ffffffffffffffffffffffffffffffffffffffff1614806124d857506124d7856124d2612595565b61235e565b5b612517576040517f08c379a000000000000000000000000000000000000000000000000000000000815260040161250e906149de565b60405180910390fd5b6125248585858585612c56565b5050505050565b60007f01ffc9a7000000000000000000000000000000000000000000000000000000007bffffffffffffffffffffffffffffffffffffffffffffffffffffffff1916827bffffffffffffffffffffffffffffffffffffffffffffffffffffffff1916149050919050565b600033905090565b81518351146125e1576040517f08c379a00000000000000000000000000000000000000000000000000000000081526004016125d890614a70565b60405180910390fd5b600073ffffffffffffffffffffffffffffffffffffffff168473ffffffffffffffffffffffffffffffffffffffff1603612650576040517f08c379a000000000000000000000000000000000000000000000000000000000815260040161264790614b02565b60405180910390fd5b600061265a612595565b905061266a818787878787612ef1565b60005b845181101561281b57600085828151811061268b5761268a613f3d565b5b6020026020010151905060008583815181106126aa576126a9613f3d565b5b60200260200101519050600080600084815260200190815260200160002060008b73ffffffffffffffffffffffffffffffffffffffff1673ffffffffffffffffffffffffffffffffffffffff1681526020019081526020016000205490508181101561274b576040517f08c379a000000000000000000000000000000000000000000000000000000000815260040161274290614b94565b60405180910390fd5b81810360008085815260200190815260200160002060008c73ffffffffffffffffffffffffffffffffffffffff1673ffffffffffffffffffffffffffffffffffffffff168152602001908152602001600020819055508160008085815260200190815260200160002060008b73ffffffffffffffffffffffffffffffffffffffff1673ffffffffffffffffffffffffffffffffffffffff16815260200190815260200160002060008282546128009190613f9b565b9250508190555050505080612814906141f2565b905061266d565b508473ffffffffffffffffffffffffffffffffffffffff168673ffffffffffffffffffffffffffffffffffffffff168273ffffffffffffffffffffffffffffffffffffffff167f4a39dc06d4c0dbc64b70af90fd698a233a518aa5d07e595d983b8c0526c8f7fb8787604051612892929190614bb4565b60405180910390a46128a8818787878787612ef9565b6128b6818787878787612f01565b505050505050565b600073ffffffffffffffffffffffffffffffffffffffff168473ffffffffffffffffffffffffffffffffffffffff160361292d576040517f08c379a000000000000000000000000000000000000000000000000000000000815260040161292490614c5d565b60405180910390fd5b8151835114612971576040517f08c379a000000000000000000000000000000000000000000000000000000000815260040161296890614a70565b60405180910390fd5b600061297b612595565b905061298c81600087878787612ef1565b60005b8451811015612a45578381815181106129ab576129aa613f3d565b5b60200260200101516000808784815181106129c9576129c8613f3d565b5b6020026020010151815260200190815260200160002060008873ffffffffffffffffffffffffffffffffffffffff1673ffffffffffffffffffffffffffffffffffffffff1681526020019081526020016000206000828254612a2b9190613f9b565b925050819055508080612a3d906141f2565b91505061298f565b508473ffffffffffffffffffffffffffffffffffffffff16600073ffffffffffffffffffffffffffffffffffffffff168273ffffffffffffffffffffffffffffffffffffffff167f4a39dc06d4c0dbc64b70af90fd698a233a518aa5d07e595d983b8c0526c8f7fb8787604051612abd929190614bb4565b60405180910390a4612ad481600087878787612ef9565b612ae381600087878787612f01565b5050505050565b8173ffffffffffffffffffffffffffffffffffffffff168373ffffffffffffffffffffffffffffffffffffffff1603612b58576040517f08c379a0000000000000000000000000000000000000000000000000000000008152600401612b4f90614cef565b60405180910390fd5b80600160008573ffffffffffffffffffffffffffffffffffffffff1673ffffffffffffffffffffffffffffffffffffffff16815260200190815260200160002060008473ffffffffffffffffffffffffffffffffffffffff1673ffffffffffffffffffffffffffffffffffffffff16815260200190815260200160002060006101000a81548160ff0219169083151502179055508173ffffffffffffffffffffffffffffffffffffffff168373ffffffffffffffffffffffffffffffffffffffff167f17307eab39ab6107e8899845ad3d59bd9653f200f220920489ca2b5937696c3183604051612c49919061352b565b60405180910390a3505050565b600073ffffffffffffffffffffffffffffffffffffffff168473ffffffffffffffffffffffffffffffffffffffff1603612cc5576040517f08c379a0000000000000000000000000000000000000000000000000000000008152600401612cbc90614b02565b60405180910390fd5b6000612ccf612595565b90506000612cdc856130d8565b90506000612ce9856130d8565b9050612cf9838989858589612ef1565b600080600088815260200190815260200160002060008a73ffffffffffffffffffffffffffffffffffffffff1673ffffffffffffffffffffffffffffffffffffffff16815260200190815260200160002054905085811015612d90576040517f08c379a0000000000000000000000000000000000000000000000000000000008152600401612d8790614b94565b60405180910390fd5b85810360008089815260200190815260200160002060008b73ffffffffffffffffffffffffffffffffffffffff1673ffffffffffffffffffffffffffffffffffffffff168152602001908152602001600020819055508560008089815260200190815260200160002060008a73ffffffffffffffffffffffffffffffffffffffff1673ffffffffffffffffffffffffffffffffffffffff1681526020019081526020016000206000828254612e459190613f9b565b925050819055508773ffffffffffffffffffffffffffffffffffffffff168973ffffffffffffffffffffffffffffffffffffffff168573ffffffffffffffffffffffffffffffffffffffff167fc3d58168c5ae7397731d063d5bbf3d657854427343f4c083240f7aacaa2d0f628a8a604051612ec2929190613941565b60405180910390a4612ed8848a8a86868a612ef9565b612ee6848a8a8a8a8a613152565b505050505050505050565b505050505050565b505050505050565b612f208473ffffffffffffffffffffffffffffffffffffffff16613329565b156130d0578373ffffffffffffffffffffffffffffffffffffffff1663bc197c8187878686866040518663ffffffff1660e01b8152600401612f66959493929190614d64565b6020604051808303816000875af1925050508015612fa257506040513d601f19601f82011682018060405250810190612f9f9190614de1565b60015b61304757612fae614e1b565b806308c379a00361300a5750612fc2614e3d565b80612fcd575061300c565b806040517f08c379a000000000000000000000000000000000000000000000000000000000815260040161300191906135d6565b60405180910390fd5b505b6040517f08c379a000000000000000000000000000000000000000000000000000000000815260040161303e90614f3f565b60405180910390fd5b63bc197c8160e01b7bffffffffffffffffffffffffffffffffffffffffffffffffffffffff1916817bffffffffffffffffffffffffffffffffffffffffffffffffffffffff1916146130ce576040517f08c379a00000000000000000000000000000000000000000000000000000000081526004016130c590614fd1565b60405180910390fd5b505b505050505050565b60606000600167ffffffffffffffff8111156130f7576130f6613627565b5b6040519080825280602002602001820160405280156131255781602001602082028036833780820191505090505b509050828160008151811061313d5761313c613f3d565b5b60200260200101818152505080915050919050565b6131718473ffffffffffffffffffffffffffffffffffffffff16613329565b15613321578373ffffffffffffffffffffffffffffffffffffffff1663f23a6e6187878686866040518663ffffffff1660e01b81526004016131b7959493929190614ff1565b6020604051808303816000875af19250505080156131f357506040513d601f19601f820116820180604052508101906131f09190614de1565b60015b613298576131ff614e1b565b806308c379a00361325b5750613213614e3d565b8061321e575061325d565b806040517f08c379a000000000000000000000000000000000000000000000000000000000815260040161325291906135d6565b60405180910390fd5b505b6040517f08c379a000000000000000000000000000000000000000000000000000000000815260040161328f90614f3f565b60405180910390fd5b63f23a6e6160e01b7bffffffffffffffffffffffffffffffffffffffffffffffffffffffff1916817bffffffffffffffffffffffffffffffffffffffffffffffffffffffff19161461331f576040517f08c379a000000000000000000000000000000000000000000000000000000000815260040161331690614fd1565b60405180910390fd5b505b505050505050565b6000808273ffffffffffffffffffffffffffffffffffffffff163b119050919050565b6000604051905090565b600080fd5b600080fd5b600073ffffffffffffffffffffffffffffffffffffffff82169050919050565b600061338b82613360565b9050919050565b61339b81613380565b81146133a657600080fd5b50565b6000813590506133b881613392565b92915050565b6000819050919050565b6133d1816133be565b81146133dc57600080fd5b50565b6000813590506133ee816133c8565b92915050565b6000806040838503121561340b5761340a613356565b5b6000613419858286016133a9565b925050602061342a858286016133df565b9150509250929050565b61343d816133be565b82525050565b60006020820190506134586000830184613434565b92915050565b60006020828403121561347457613473613356565b5b6000613482848285016133df565b91505092915050565b60007fffffffff0000000000000000000000000000000000000000000000000000000082169050919050565b6134c08161348b565b81146134cb57600080fd5b50565b6000813590506134dd816134b7565b92915050565b6000602082840312156134f9576134f8613356565b5b6000613507848285016134ce565b91505092915050565b60008115159050919050565b61352581613510565b82525050565b6000602082019050613540600083018461351c565b92915050565b600081519050919050565b600082825260208201905092915050565b60005b83811015613580578082015181840152602081019050613565565b60008484015250505050565b6000601f19601f8301169050919050565b60006135a882613546565b6135b28185613551565b93506135c2818560208601613562565b6135cb8161358c565b840191505092915050565b600060208201905081810360008301526135f0818461359d565b905092915050565b61360181613380565b82525050565b600060208201905061361c60008301846135f8565b92915050565b600080fd5b7f4e487b7100000000000000000000000000000000000000000000000000000000600052604160045260246000fd5b61365f8261358c565b810181811067ffffffffffffffff8211171561367e5761367d613627565b5b80604052505050565b600061369161334c565b905061369d8282613656565b919050565b600067ffffffffffffffff8211156136bd576136bc613627565b5b602082029050602081019050919050565b600080fd5b60006136e66136e1846136a2565b613687565b90508083825260208201905060208402830185811115613709576137086136ce565b5b835b81811015613732578061371e88826133df565b84526020840193505060208101905061370b565b5050509392505050565b600082601f83011261375157613750613622565b5b81356137618482602086016136d3565b91505092915050565b600080fd5b600067ffffffffffffffff82111561378a57613789613627565b5b6137938261358c565b9050602081019050919050565b82818337600083830152505050565b60006137c26137bd8461376f565b613687565b9050828152602081018484840111156137de576137dd61376a565b5b6137e98482856137a0565b509392505050565b600082601f83011261380657613805613622565b5b81356138168482602086016137af565b91505092915050565b600080600080600060a0868803121561383b5761383a613356565b5b6000613849888289016133a9565b955050602061385a888289016133a9565b945050604086013567ffffffffffffffff81111561387b5761387a61335b565b5b6138878882890161373c565b935050606086013567ffffffffffffffff8111156138a8576138a761335b565b5b6138b48882890161373c565b925050608086013567ffffffffffffffff8111156138d5576138d461335b565b5b6138e1888289016137f1565b9150509295509295909350565b60008060006060848603121561390757613906613356565b5b6000613915868287016133a9565b9350506020613926868287016133a9565b9250506040613937868287016133df565b9150509250925092565b60006040820190506139566000830185613434565b6139636020830184613434565b9392505050565b600067ffffffffffffffff82111561398557613984613627565b5b602082029050602081019050919050565b60006139a96139a48461396a565b613687565b905080838252602082019050602084028301858111156139cc576139cb6136ce565b5b835b818110156139f557806139e188826133a9565b8452602084019350506020810190506139ce565b5050509392505050565b600082601f830112613a1457613a13613622565b5b8135613a24848260208601613996565b91505092915050565b60008060408385031215613a4457613a43613356565b5b600083013567ffffffffffffffff811115613a6257613a6161335b565b5b613a6e858286016139ff565b925050602083013567ffffffffffffffff811115613a8f57613a8e61335b565b5b613a9b8582860161373c565b9150509250929050565b600081519050919050565b600082825260208201905092915050565b6000819050602082019050919050565b613ada816133be565b82525050565b6000613aec8383613ad1565b60208301905092915050565b6000602082019050919050565b6000613b1082613aa5565b613b1a8185613ab0565b9350613b2583613ac1565b8060005b83811015613b56578151613b3d8882613ae0565b9750613b4883613af8565b925050600181019050613b29565b5085935050505092915050565b60006020820190508181036000830152613b7d8184613b05565b905092915050565b600060208284031215613b9b57613b9a613356565b5b6000613ba9848285016133a9565b91505092915050565b613bbb81613510565b8114613bc657600080fd5b50565b600081359050613bd881613bb2565b92915050565b60008060408385031215613bf557613bf4613356565b5b6000613c03858286016133a9565b9250506020613c1485828601613bc9565b9150509250929050565b60008060408385031215613c3557613c34613356565b5b6000613c43858286016133a9565b9250506020613c54858286016133a9565b9150509250929050565b600080600080600060a08688031215613c7a57613c79613356565b5b6000613c88888289016133a9565b9550506020613c99888289016133a9565b9450506040613caa888289016133df565b9350506060613cbb888289016133df565b925050608086013567ffffffffffffffff811115613cdc57613cdb61335b565b5b613ce8888289016137f1565b9150509295509295909350565b7f455243313135353a2062616c616e636520717565727920666f7220746865207a60008201527f65726f2061646472657373000000000000000000000000000000000000000000602082015250565b6000613d51602b83613551565b9150613d5c82613cf5565b604082019050919050565b60006020820190508181036000830152613d8081613d44565b9050919050565b7f4f6e6c79207265676973746572656420696e766573746f72732063616e20706560008201527f72666f726d207468697320616374696f6e000000000000000000000000000000602082015250565b6000613de3603183613551565b9150613dee82613d87565b604082019050919050565b60006020820190508181036000830152613e1281613dd6565b9050919050565b7f566f74652044656e6965643a205468697320757365722068617320616c72656160008201527f647920636173746564206120766f746521000000000000000000000000000000602082015250565b6000613e75603183613551565b9150613e8082613e19565b604082019050919050565b60006020820190508181036000830152613ea481613e68565b9050919050565b7f496e76616c696420566f74653a2054686520766f74652070726f706f73616c2060008201527f656e746572656420697320696e76616c69642100000000000000000000000000602082015250565b6000613f07603383613551565b9150613f1282613eab565b604082019050919050565b60006020820190508181036000830152613f3681613efa565b9050919050565b7f4e487b7100000000000000000000000000000000000000000000000000000000600052603260045260246000fd5b7f4e487b7100000000000000000000000000000000000000000000000000000000600052601160045260246000fd5b6000613fa6826133be565b9150613fb1836133be565b9250828201905080821115613fc957613fc8613f6c565b5b92915050565b7f43616c6c6572206973206e6f7420746865206f776e6572000000000000000000600082015250565b6000614005601783613551565b915061401082613fcf565b602082019050919050565b6000602082019050818103600083015261403481613ff8565b9050919050565b60008151905061404a816133c8565b92915050565b60006020828403121561406657614065613356565b5b60006140748482850161403b565b91505092915050565b6000614088826133be565b9150614093836133be565b9250817fffffffffffffffffffffffffffffffffffffffffffffffffffffffffffffffff04831182151516156140cc576140cb613f6c565b5b828202905092915050565b7f4e487b7100000000000000000000000000000000000000000000000000000000600052601260045260246000fd5b6000614111826133be565b915061411c836133be565b92508261412c5761412b6140d7565b5b828204905092915050565b7f4e6f206469766964656e647320617661696c61626c6520746f2064697374726960008201527f6275746500000000000000000000000000000000000000000000000000000000602082015250565b6000614193602483613551565b915061419e82614137565b604082019050919050565b600060208201905081810360008301526141c281614186565b9050919050565b60006040820190506141de6000830185613434565b6141eb60208301846135f8565b9392505050565b60006141fd826133be565b91507fffffffffffffffffffffffffffffffffffffffffffffffffffffffffffffffff820361422f5761422e613f6c565b5b600182019050919050565b7f4e487b7100000000000000000000000000000000000000000000000000000000600052602260045260246000fd5b6000600282049050600182168061428157607f821691505b6020821081036142945761429361423a565b5b50919050565b7f496e73756666696369656e74204346542062616c616e63650000000000000000600082015250565b60006142d0601883613551565b91506142db8261429a565b602082019050919050565b600060208201905081810360008301526142ff816142c3565b9050919050565b7f496e73756666696369656e742045544820696e20636f6e747261637400000000600082015250565b600061433c601c83613551565b915061434782614306565b602082019050919050565b6000602082019050818103600083015261436b8161432f565b9050919050565b7f455243313135353a207472616e736665722063616c6c6572206973206e6f742060008201527f6f776e6572206e6f7220617070726f7665640000000000000000000000000000602082015250565b60006143ce603283613551565b91506143d982614372565b604082019050919050565b600060208201905081810360008301526143fd816143c1565b9050919050565b7f4e6f20636c6561722077696e6e65722079657400000000000000000000000000600082015250565b600061443a601383613551565b915061444582614404565b602082019050919050565b600060208201905081810360008301526144698161442d565b9050919050565b600061447b826133be565b9150614486836133be565b925082820390508181111561449e5761449d613f6c565b5b92915050565b7f526563697069656e74206d75737420626520612072656769737465726564206960008201527f6e766573746f7200000000000000000000000000000000000000000000000000602082015250565b6000614500602783613551565b915061450b826144a4565b604082019050919050565b6000602082019050818103600083015261452f816144f3565b9050919050565b7f4d696e696d756d206f662035302043465420726571756972656420746f20747260008201527f616e66657220676f7665726e616e6365204e4654000000000000000000000000602082015250565b6000614592603483613551565b915061459d82614536565b604082019050919050565b600060208201905081810360008301526145c181614585565b9050919050565b7f496e766573746f7220697320616c726561647920726567697374657265640000600082015250565b60006145fe601e83613551565b9150614609826145c8565b602082019050919050565b6000602082019050818103600083015261462d816145f1565b9050919050565b6000819050919050565b6000819050919050565b600061466361465e61465984614634565b61463e565b6133be565b9050919050565b61467381614648565b82525050565b600060408201905061468e600083018561466a565b61469b60208301846135f8565b9392505050565b7f455243313135353a206163636f756e747320616e6420696473206c656e67746860008201527f206d69736d617463680000000000000000000000000000000000000000000000602082015250565b60006146fe602983613551565b9150614709826146a2565b604082019050919050565b6000602082019050818103600083015261472d816146f1565b9050919050565b600060608201905061474960008301866135f8565b61475660208301856135f8565b6147636040830184613434565b949350505050565b7f4e6f7420656e6f756768204554482073656e7400000000000000000000000000600082015250565b60006147a1601383613551565b91506147ac8261476b565b602082019050919050565b600060208201905081810360008301526147d081614794565b9050919050565b7f4d696e696d756d206f662035302043465420726571756972656420746f206d6960008201527f6e7420676f7665726e616e6365204e4654000000000000000000000000000000602082015250565b6000614833603183613551565b915061483e826147d7565b604082019050919050565b6000602082019050818103600083015261486281614826565b9050919050565b7f5573657220446f6573206e6f7420486f6c64207175616c696679696e6720616d60008201527f6f756e74206f662043465420666f7220476f7665726e616e6365200000000000602082015250565b60006148c5603b83613551565b91506148d082614869565b604082019050919050565b600060208201905081810360008301526148f4816148b8565b9050919050565b60008151905061490a81613bb2565b92915050565b60006020828403121561492657614925613356565b5b6000614934848285016148fb565b91505092915050565b7f4e487b7100000000000000000000000000000000000000000000000000000000600052600160045260246000fd5b7f455243313135353a2063616c6c6572206973206e6f74206f776e6572206e6f7260008201527f20617070726f7665640000000000000000000000000000000000000000000000602082015250565b60006149c8602983613551565b91506149d38261496c565b604082019050919050565b600060208201905081810360008301526149f7816149bb565b9050919050565b7f455243313135353a2069647320616e6420616d6f756e7473206c656e6774682060008201527f6d69736d61746368000000000000000000000000000000000000000000000000602082015250565b6000614a5a602883613551565b9150614a65826149fe565b604082019050919050565b60006020820190508181036000830152614a8981614a4d565b9050919050565b7f455243313135353a207472616e7366657220746f20746865207a65726f20616460008201527f6472657373000000000000000000000000000000000000000000000000000000602082015250565b6000614aec602583613551565b9150614af782614a90565b604082019050919050565b60006020820190508181036000830152614b1b81614adf565b9050919050565b7f455243313135353a20696e73756666696369656e742062616c616e636520666f60008201527f72207472616e7366657200000000000000000000000000000000000000000000602082015250565b6000614b7e602a83613551565b9150614b8982614b22565b604082019050919050565b60006020820190508181036000830152614bad81614b71565b9050919050565b60006040820190508181036000830152614bce8185613b05565b90508181036020830152614be28184613b05565b90509392505050565b7f455243313135353a206d696e7420746f20746865207a65726f2061646472657360008201527f7300000000000000000000000000000000000000000000000000000000000000602082015250565b6000614c47602183613551565b9150614c5282614beb565b604082019050919050565b60006020820190508181036000830152614c7681614c3a565b9050919050565b7f455243313135353a2073657474696e6720617070726f76616c2073746174757360008201527f20666f722073656c660000000000000000000000000000000000000000000000602082015250565b6000614cd9602983613551565b9150614ce482614c7d565b604082019050919050565b60006020820190508181036000830152614d0881614ccc565b9050919050565b600081519050919050565b600082825260208201905092915050565b6000614d3682614d0f565b614d408185614d1a565b9350614d50818560208601613562565b614d598161358c565b840191505092915050565b600060a082019050614d7960008301886135f8565b614d8660208301876135f8565b8181036040830152614d988186613b05565b90508181036060830152614dac8185613b05565b90508181036080830152614dc08184614d2b565b90509695505050505050565b600081519050614ddb816134b7565b92915050565b600060208284031215614df757614df6613356565b5b6000614e0584828501614dcc565b91505092915050565b60008160e01c9050919050565b600060033d1115614e3a5760046000803e614e37600051614e0e565b90505b90565b600060443d10614eca57614e4f61334c565b60043d036004823e80513d602482011167ffffffffffffffff82111715614e77575050614eca565b808201805167ffffffffffffffff811115614e955750505050614eca565b80602083010160043d038501811115614eb2575050505050614eca565b614ec182602001850186613656565b82955050505050505b90565b7f455243313135353a207472616e7366657220746f206e6f6e204552433131353560008201527f526563656976657220696d706c656d656e746572000000000000000000000000602082015250565b6000614f29603483613551565b9150614f3482614ecd565b604082019050919050565b60006020820190508181036000830152614f5881614f1c565b9050919050565b7f455243313135353a204552433131353552656365697665722072656a6563746560008201527f6420746f6b656e73000000000000000000000000000000000000000000000000602082015250565b6000614fbb602883613551565b9150614fc682614f5f565b604082019050919050565b60006020820190508181036000830152614fea81614fae565b9050919050565b600060a08201905061500660008301886135f8565b61501360208301876135f8565b6150206040830186613434565b61502d6060830185613434565b818103608083015261503f8184614d2b565b9050969550505050505056fea2646970667358221220acbc1988a7fc36a2b644e11b440108dfc1487c2eff2c81cec99a6e4ddc05e34e64736f6c6343000810003368747470733a2f2f636861696e66756e642e6578616d706c652f6170692f746f6b656e2f7b69647d2e6a736f6e",
  "immutableReferences": {},
  "source": "// SPDX-License-Identifier: MIT\npragma solidity ^0.8.0;\nimport \"./ChainFundToken.sol\";\nimport \"./GovernanceNFT.sol\";\nimport \"@openzeppelin/contracts/token/ERC1155/ERC1155.sol\";\nimport \"@openzeppelin/contracts/token/ERC20/IERC20.sol\";\nimport \"@openzeppelin/contracts/utils/math/SafeMath.sol\";\n\ncontract ChainFundMultiToken is ERC1155 {\n    using SafeMath for uint256;\n    address public owner;\n    uint256 public constant ETHPerCFT = 1 ether;\n    address[] public registeredInvestors;\n    uint256 public btcratio = 50;\n    uint256 public usdtratio = 50;\n    uint256 public constant CFTID = 0;\n    uint256 public constant NFTID = 1;\n\n    ChainFundToken private cftToken;\n    GovernanceNFT private govNFT;\n\n    modifier onlyOwner() {\n        require(msg.sender == owner, \"Caller is not the owner\");\n        _; }\n\n    modifier onlyRegisteredInvestor() {\n        require(isInvestorRegistered(msg.sender), \"Only registered investors can perform this action\");\n        _;\n    }\n    modifier onlyGoverningInvestors() {\n        require(hasGovernanceNFT(msg.sender), \"Only registered investors can perform this action\");\n        _;\n    }\n\n    constructor(address _erc20Address, address _erc721Address) ERC1155(\"https://chainfund.example/api/token/{id}.json\") {\n        owner = msg.sender;\n        cftToken = ChainFundToken(_erc20Address);\n        govNFT = GovernanceNFT(_erc721Address);\n    }\n\n    struct regInvestor {\n        uint256 weight;\n        bool voted;\n        uint256 vote;\n    }\n    mapping(address => regInvestor) regInvestors;\n    struct Proposal {\n        uint256 voteCount;\n    }\n\n    Proposal btc;\n    Proposal usdt;\n    Proposal[] proposals;\n    function initializeProposals() public onlyGoverningInvestors {\n        proposals.push(btc); \n        proposals.push(usdt);\n    }\n    // Function to register investors\n    function registerInvestor() external {\n        require(!isInvestorRegistered(msg.sender), \"Investor is already registered\");\n        registeredInvestors.push(msg.sender);\n        cftToken.mintCFT(0, msg.sender);\n        regInvestors[msg.sender].voted= false; \n        regInvestors[msg.sender].weight=0;\n    }\n\n    function vote(uint256 toProposal) public onlyRegisteredInvestor {\n        regInvestor storage sender = regInvestors[msg.sender];\n        require(!sender.voted, \"Vote Denied: This user has already casted a vote!\");\n        require(toProposal == 0 || toProposal == 1, \"Invalid Vote: The vote proposal entered is invalid!\");\n        sender.voted = true;\n        sender.vote = toProposal;\n        proposals[toProposal].voteCount += sender.weight;\n    }\n\n    function getwinningproposal() public view returns (uint256 winningProposal) {\n        uint256 halfSupply = cftToken.totalCFTSupply() / 2;\n        uint256 winningVoteCount = 0;\n\n        for (uint256 prop = 0; prop < proposals.length; prop++)\n            if (proposals[prop].voteCount > winningVoteCount && proposals[prop].voteCount >= halfSupply) {\n                winningVoteCount = proposals[prop].voteCount;\n                winningProposal = prop;\n            }\n\n        assert(winningVoteCount >= halfSupply);\n    }\nfunction executeProposal() public onlyOwner {\n    uint256 winningProposal = getwinningproposal();\n    require(winningProposal != type(uint256).max, \"No clear winner yet\");\n\n    if (winningProposal == 0) {\n        btcratio += 10;\n        usdtratio -= 10;\n    } else {\n        btcratio -= 10;\n        usdtratio += 10;\n    }\n}\n\n    function getCFTComposition() public view returns(uint256, uint256) {\n        return (btcratio, usdtratio);\n }\n\n\n    // Function to check if an investor is registered\n    function isInvestorRegistered(address investor) public view returns (bool) {\n        for (uint256 i = 0; i < registeredInvestors.length; i++) {\n            if (registeredInvestors[i] == investor) {\n                return true;\n            }\n        }\n        return false;\n    }\n\n    // Function to buy CFT directly in ERC1155 contract\n    function buyCFT() public payable onlyRegisteredInvestor {\n        require((msg.value) >= ETHPerCFT, \"Not enough ETH sent\");\n        uint256 cftAmount = msg.value / ETHPerCFT;\n        cftToken.mintCFT(cftAmount, msg.sender);\n        regInvestors[msg.sender].weight=CFTbalance(msg.sender);\n    }\n\n\n    function CFTbalance(address user) public view returns (uint256) {\n        return cftToken.balanceOf(user);\n    }\n\n    // Function to transfer CFT tokens to another user (only registered investors)\n    function transferCFT(address to, uint256 cftAmount) external onlyRegisteredInvestor {\n        require(isInvestorRegistered(to), \"Recipient must be a registered investor\");\n        cftToken.transferCFT(msg.sender, to, cftAmount);\n        regInvestors[msg.sender].weight=CFTbalance(msg.sender);\n    }\n\n    // Function for users to withdraw ETH based on their CFT holdings\n    function withdraw(uint256 cftAmount) public onlyRegisteredInvestor {\n        require(cftToken.balanceOfUser(msg.sender) >= cftAmount, \"Insufficient CFT balance\");\n        uint256 ethAmount = cftAmount * ETHPerCFT;\n        require(address(this).balance >= ethAmount, \"Insufficient ETH in contract\");\n        cftToken.burnCFT(cftAmount, msg.sender);\n        payable(msg.sender).transfer(ethAmount);\n    }\n\n    function totalCFTSupply() public view returns (uint256) {\n        return cftToken.totalCFTSupply();\n    }\n\n    //Function to mint 5% of total CFT supply and distribute as dividends to registered investors\n    function distributeDividends() public onlyOwner {\n        uint256 totalSupply = cftToken.totalCFTSupply();\n        uint256 dividendAmount = (totalSupply * 5) / 100; // 5% of total supply\n\n        require(dividendAmount > 0, \"No dividends available to distribute\");\n\n        for (uint256 i = 0; i < registeredInvestors.length; i++) {\n            address investor = registeredInvestors[i];\n            uint256 investorBalance = cftToken.balanceOfUser(investor);\n            uint256 investorDividend = (investorBalance * dividendAmount) / totalSupply;\n\n            if (investorDividend > 0) {\n                cftToken.mintCFT(investorDividend, investor);\n            }\n        }\n    }\n\n    function getGovernanceNFT(address user) public  onlyRegisteredInvestor {\n        require(isInvestorRegistered(user), \"Recipient must be a registered investor\");\n        require(CFTbalance(user) >= 50, \"User Does not Hold qualifying amount of CFT for Governance \");\n        govNFT.mintGovernanceNFT(user);\n    }\n\n    function hasGovernanceNFT(address user) public view returns (bool) {\n        return govNFT.hasGovNFT(user);\n    }\n\n    function batchpurchase() external payable onlyRegisteredInvestor {\n        require(msg.value >= ETHPerCFT, \"Not enough ETH sent\");\n        uint256 cftAmount = msg.value / ETHPerCFT;\n        require(cftAmount >= 50, \"Minimum of 50 CFT required to mint governance NFT\");\n\n        uint256[] memory ids = new uint256[](2);\n        uint256[] memory amounts = new uint256[](2);\n        ids[0] = CFTID;\n        ids[1] = NFTID;\n        amounts[0] = cftAmount;\n        amounts[1] = 1;\n\n        _mintBatch(msg.sender, ids, amounts, \"\");\n    }\n\n        function transferCFTandNFT(address from, address to, uint256 CFTamount) external {\n        require(isInvestorRegistered(to), \"Recipient must be a registered investor\");\n        require(CFTamount >= 50, \"Minimum of 50 CFT required to tranfer governance NFT\");\n\n        uint256[] memory ids = new uint256[](2);\n        uint256[] memory amounts = new uint256[](2);\n\n        ids[0] = CFTID;\n        amounts[0] = CFTamount;\n        ids[1] = NFTID;\n        amounts[1] = 1;\n        /***Batch Tranfer***/\n        safeBatchTransferFrom(from, to, ids, amounts, \"\");\n    }\n\n    function batchbalance(address user, uint tokenID) public view returns (uint256) {\n        return balanceOf(user, tokenID);\n    }\n\n}\n",
  "sourcePath": "C:\\Users\\Prathap\\Desktop\\Node\\new92\\BallotPost-2\\ballot-contract\\contracts\\ChainFundERC1155.sol",
  "compiler": {
    "name": "solc",
    "version": "0.8.16+commit.07a7930e.Emscripten.clang"
  },
  "schemaVersion": "3.4.16",
  "updatedAt": "2023-12-03T22:17:55.613Z",
  "devdoc": {
    "kind": "dev",
    "methods": {
      "balanceOf(address,uint256)": {
        "details": "See {IERC1155-balanceOf}. Requirements: - `account` cannot be the zero address."
      },
      "balanceOfBatch(address[],uint256[])": {
        "details": "See {IERC1155-balanceOfBatch}. Requirements: - `accounts` and `ids` must have the same length."
      },
      "isApprovedForAll(address,address)": {
        "details": "See {IERC1155-isApprovedForAll}."
      },
      "safeBatchTransferFrom(address,address,uint256[],uint256[],bytes)": {
        "details": "See {IERC1155-safeBatchTransferFrom}."
      },
      "safeTransferFrom(address,address,uint256,uint256,bytes)": {
        "details": "See {IERC1155-safeTransferFrom}."
      },
      "setApprovalForAll(address,bool)": {
        "details": "See {IERC1155-setApprovalForAll}."
      },
      "supportsInterface(bytes4)": {
        "details": "See {IERC165-supportsInterface}."
      },
      "uri(uint256)": {
        "details": "See {IERC1155MetadataURI-uri}. This implementation returns the same URI for *all* token types. It relies on the token type ID substitution mechanism https://eips.ethereum.org/EIPS/eip-1155#metadata[defined in the EIP]. Clients calling this function must replace the `\\{id\\}` substring with the actual token type ID."
      }
    },
    "version": 1
  },
  "userdoc": {
    "kind": "user",
    "methods": {},
    "version": 1
  }
}