{
  "contractName": "ChainFundERC1155",
  "abi": [
    {
      "inputs": [
        {
          "internalType": "address",
          "name": "_erc20Address",
          "type": "address"
        },
        {
          "internalType": "address",
          "name": "_erc721Address",
          "type": "address"
        }
      ],
      "stateMutability": "nonpayable",
      "type": "constructor"
    },
    {
      "anonymous": false,
      "inputs": [
        {
          "indexed": true,
          "internalType": "address",
          "name": "account",
          "type": "address"
        },
        {
          "indexed": true,
          "internalType": "address",
          "name": "operator",
          "type": "address"
        },
        {
          "indexed": false,
          "internalType": "bool",
          "name": "approved",
          "type": "bool"
        }
      ],
      "name": "ApprovalForAll",
      "type": "event"
    },
    {
      "anonymous": false,
      "inputs": [
        {
          "indexed": true,
          "internalType": "address",
          "name": "operator",
          "type": "address"
        },
        {
          "indexed": true,
          "internalType": "address",
          "name": "from",
          "type": "address"
        },
        {
          "indexed": true,
          "internalType": "address",
          "name": "to",
          "type": "address"
        },
        {
          "indexed": false,
          "internalType": "uint256[]",
          "name": "ids",
          "type": "uint256[]"
        },
        {
          "indexed": false,
          "internalType": "uint256[]",
          "name": "values",
          "type": "uint256[]"
        }
      ],
      "name": "TransferBatch",
      "type": "event"
    },
    {
      "anonymous": false,
      "inputs": [
        {
          "indexed": true,
          "internalType": "address",
          "name": "operator",
          "type": "address"
        },
        {
          "indexed": true,
          "internalType": "address",
          "name": "from",
          "type": "address"
        },
        {
          "indexed": true,
          "internalType": "address",
          "name": "to",
          "type": "address"
        },
        {
          "indexed": false,
          "internalType": "uint256",
          "name": "id",
          "type": "uint256"
        },
        {
          "indexed": false,
          "internalType": "uint256",
          "name": "value",
          "type": "uint256"
        }
      ],
      "name": "TransferSingle",
      "type": "event"
    },
    {
      "anonymous": false,
      "inputs": [
        {
          "indexed": false,
          "internalType": "string",
          "name": "value",
          "type": "string"
        },
        {
          "indexed": true,
          "internalType": "uint256",
          "name": "id",
          "type": "uint256"
        }
      ],
      "name": "URI",
      "type": "event"
    },
    {
      "inputs": [],
      "name": "ETHPerCFT",
      "outputs": [
        {
          "internalType": "uint256",
          "name": "",
          "type": "uint256"
        }
      ],
      "stateMutability": "view",
      "type": "function",
      "constant": true
    },
    {
      "inputs": [
        {
          "internalType": "address",
          "name": "account",
          "type": "address"
        },
        {
          "internalType": "uint256",
          "name": "id",
          "type": "uint256"
        }
      ],
      "name": "balanceOf",
      "outputs": [
        {
          "internalType": "uint256",
          "name": "",
          "type": "uint256"
        }
      ],
      "stateMutability": "view",
      "type": "function",
      "constant": true
    },
    {
      "inputs": [
        {
          "internalType": "address[]",
          "name": "accounts",
          "type": "address[]"
        },
        {
          "internalType": "uint256[]",
          "name": "ids",
          "type": "uint256[]"
        }
      ],
      "name": "balanceOfBatch",
      "outputs": [
        {
          "internalType": "uint256[]",
          "name": "",
          "type": "uint256[]"
        }
      ],
      "stateMutability": "view",
      "type": "function",
      "constant": true
    },
    {
      "inputs": [],
      "name": "btcratio",
      "outputs": [
        {
          "internalType": "uint256",
          "name": "",
          "type": "uint256"
        }
      ],
      "stateMutability": "view",
      "type": "function",
      "constant": true
    },
    {
      "inputs": [
        {
          "internalType": "address",
          "name": "account",
          "type": "address"
        },
        {
          "internalType": "address",
          "name": "operator",
          "type": "address"
        }
      ],
      "name": "isApprovedForAll",
      "outputs": [
        {
          "internalType": "bool",
          "name": "",
          "type": "bool"
        }
      ],
      "stateMutability": "view",
      "type": "function",
      "constant": true
    },
    {
      "inputs": [],
      "name": "owner",
      "outputs": [
        {
          "internalType": "address",
          "name": "",
          "type": "address"
        }
      ],
      "stateMutability": "view",
      "type": "function",
      "constant": true
    },
    {
      "inputs": [
        {
          "internalType": "uint256",
          "name": "",
          "type": "uint256"
        }
      ],
      "name": "registeredInvestors",
      "outputs": [
        {
          "internalType": "address",
          "name": "",
          "type": "address"
        }
      ],
      "stateMutability": "view",
      "type": "function",
      "constant": true
    },
    {
      "inputs": [
        {
          "internalType": "address",
          "name": "from",
          "type": "address"
        },
        {
          "internalType": "address",
          "name": "to",
          "type": "address"
        },
        {
          "internalType": "uint256[]",
          "name": "ids",
          "type": "uint256[]"
        },
        {
          "internalType": "uint256[]",
          "name": "amounts",
          "type": "uint256[]"
        },
        {
          "internalType": "bytes",
          "name": "data",
          "type": "bytes"
        }
      ],
      "name": "safeBatchTransferFrom",
      "outputs": [],
      "stateMutability": "nonpayable",
      "type": "function"
    },
    {
      "inputs": [
        {
          "internalType": "address",
          "name": "from",
          "type": "address"
        },
        {
          "internalType": "address",
          "name": "to",
          "type": "address"
        },
        {
          "internalType": "uint256",
          "name": "id",
          "type": "uint256"
        },
        {
          "internalType": "uint256",
          "name": "amount",
          "type": "uint256"
        },
        {
          "internalType": "bytes",
          "name": "data",
          "type": "bytes"
        }
      ],
      "name": "safeTransferFrom",
      "outputs": [],
      "stateMutability": "nonpayable",
      "type": "function"
    },
    {
      "inputs": [
        {
          "internalType": "address",
          "name": "operator",
          "type": "address"
        },
        {
          "internalType": "bool",
          "name": "approved",
          "type": "bool"
        }
      ],
      "name": "setApprovalForAll",
      "outputs": [],
      "stateMutability": "nonpayable",
      "type": "function"
    },
    {
      "inputs": [
        {
          "internalType": "bytes4",
          "name": "interfaceId",
          "type": "bytes4"
        }
      ],
      "name": "supportsInterface",
      "outputs": [
        {
          "internalType": "bool",
          "name": "",
          "type": "bool"
        }
      ],
      "stateMutability": "view",
      "type": "function",
      "constant": true
    },
    {
      "inputs": [
        {
          "internalType": "uint256",
          "name": "",
          "type": "uint256"
        }
      ],
      "name": "uri",
      "outputs": [
        {
          "internalType": "string",
          "name": "",
          "type": "string"
        }
      ],
      "stateMutability": "view",
      "type": "function",
      "constant": true
    },
    {
      "inputs": [],
      "name": "usdtratio",
      "outputs": [
        {
          "internalType": "uint256",
          "name": "",
          "type": "uint256"
        }
      ],
      "stateMutability": "view",
      "type": "function",
      "constant": true
    },
    {
      "inputs": [],
      "name": "initializeProposals",
      "outputs": [],
      "stateMutability": "nonpayable",
      "type": "function"
    },
    {
      "inputs": [],
      "name": "registerInvestor",
      "outputs": [],
      "stateMutability": "nonpayable",
      "type": "function"
    },
    {
      "inputs": [
        {
          "internalType": "uint256",
          "name": "toProposal",
          "type": "uint256"
        }
      ],
      "name": "vote",
      "outputs": [],
      "stateMutability": "nonpayable",
      "type": "function"
    },
    {
      "inputs": [],
      "name": "getwinningproposal",
      "outputs": [
        {
          "internalType": "uint256",
          "name": "winningProposal",
          "type": "uint256"
        }
      ],
      "stateMutability": "view",
      "type": "function",
      "constant": true
    },
    {
      "inputs": [],
      "name": "executeProposal",
      "outputs": [],
      "stateMutability": "nonpayable",
      "type": "function"
    },
    {
      "inputs": [],
      "name": "getCFTComposition",
      "outputs": [
        {
          "internalType": "uint256",
          "name": "",
          "type": "uint256"
        },
        {
          "internalType": "uint256",
          "name": "",
          "type": "uint256"
        }
      ],
      "stateMutability": "view",
      "type": "function",
      "constant": true
    },
    {
      "inputs": [
        {
          "internalType": "address",
          "name": "investor",
          "type": "address"
        }
      ],
      "name": "isInvestorRegistered",
      "outputs": [
        {
          "internalType": "bool",
          "name": "",
          "type": "bool"
        }
      ],
      "stateMutability": "view",
      "type": "function",
      "constant": true
    },
    {
      "inputs": [],
      "name": "buyCFT",
      "outputs": [],
      "stateMutability": "payable",
      "type": "function",
      "payable": true
    },
    {
      "inputs": [
        {
          "internalType": "address",
          "name": "user",
          "type": "address"
        }
      ],
      "name": "CFTbalance",
      "outputs": [
        {
          "internalType": "uint256",
          "name": "",
          "type": "uint256"
        }
      ],
      "stateMutability": "view",
      "type": "function",
      "constant": true
    },
    {
      "inputs": [
        {
          "internalType": "address",
          "name": "to",
          "type": "address"
        },
        {
          "internalType": "uint256",
          "name": "cftAmount",
          "type": "uint256"
        }
      ],
      "name": "transferCFT",
      "outputs": [],
      "stateMutability": "nonpayable",
      "type": "function"
    },
    {
      "inputs": [
        {
          "internalType": "uint256",
          "name": "cftAmount",
          "type": "uint256"
        }
      ],
      "name": "withdraw",
      "outputs": [],
      "stateMutability": "nonpayable",
      "type": "function"
    },
    {
      "inputs": [],
      "name": "totalCFTSupply",
      "outputs": [
        {
          "internalType": "uint256",
          "name": "",
          "type": "uint256"
        }
      ],
      "stateMutability": "view",
      "type": "function",
      "constant": true
    },
    {
      "inputs": [],
      "name": "distributeDividends",
      "outputs": [],
      "stateMutability": "nonpayable",
      "type": "function"
    },
    {
      "inputs": [
        {
          "internalType": "address",
          "name": "user",
          "type": "address"
        }
      ],
      "name": "getGovernanceNFT",
      "outputs": [],
      "stateMutability": "nonpayable",
      "type": "function"
    },
    {
      "inputs": [
        {
          "internalType": "address",
          "name": "user",
          "type": "address"
        }
      ],
      "name": "hasGovernanceNFT",
      "outputs": [
        {
          "internalType": "bool",
          "name": "",
          "type": "bool"
        }
      ],
      "stateMutability": "view",
      "type": "function",
      "constant": true
    }
  ],
  "bytecode": "0x6080604052603260055560326006553480156200001b57600080fd5b5060405162004cc938038062004cc98339818101604052810190620000419190620001b7565b6040518060600160405280602d815260200162004c9c602d91396200006c816200013860201b60201c565b5033600360006101000a81548173ffffffffffffffffffffffffffffffffffffffff021916908373ffffffffffffffffffffffffffffffffffffffff16021790555081600760006101000a81548173ffffffffffffffffffffffffffffffffffffffff021916908373ffffffffffffffffffffffffffffffffffffffff16021790555080600860006101000a81548173ffffffffffffffffffffffffffffffffffffffff021916908373ffffffffffffffffffffffffffffffffffffffff16021790555050506200055f565b806002908162000149919062000478565b5050565b600080fd5b600073ffffffffffffffffffffffffffffffffffffffff82169050919050565b60006200017f8262000152565b9050919050565b620001918162000172565b81146200019d57600080fd5b50565b600081519050620001b18162000186565b92915050565b60008060408385031215620001d157620001d06200014d565b5b6000620001e185828601620001a0565b9250506020620001f485828601620001a0565b9150509250929050565b600081519050919050565b7f4e487b7100000000000000000000000000000000000000000000000000000000600052604160045260246000fd5b7f4e487b7100000000000000000000000000000000000000000000000000000000600052602260045260246000fd5b600060028204905060018216806200028057607f821691505b60208210810362000296576200029562000238565b5b50919050565b60008190508160005260206000209050919050565b60006020601f8301049050919050565b600082821b905092915050565b600060088302620003007fffffffffffffffffffffffffffffffffffffffffffffffffffffffffffffffff82620002c1565b6200030c8683620002c1565b95508019841693508086168417925050509392505050565b6000819050919050565b6000819050919050565b600062000359620003536200034d8462000324565b6200032e565b62000324565b9050919050565b6000819050919050565b620003758362000338565b6200038d620003848262000360565b848454620002ce565b825550505050565b600090565b620003a462000395565b620003b18184846200036a565b505050565b5b81811015620003d957620003cd6000826200039a565b600181019050620003b7565b5050565b601f8211156200042857620003f2816200029c565b620003fd84620002b1565b810160208510156200040d578190505b620004256200041c85620002b1565b830182620003b6565b50505b505050565b600082821c905092915050565b60006200044d600019846008026200042d565b1980831691505092915050565b60006200046883836200043a565b9150826002028217905092915050565b6200048382620001fe565b67ffffffffffffffff8111156200049f576200049e62000209565b5b620004ab825462000267565b620004b8828285620003dd565b600060209050601f831160018114620004f05760008415620004db578287015190505b620004e785826200045a565b86555062000557565b601f19841662000500866200029c565b60005b828110156200052a5784890151825560018201915060208501945060208101905062000503565b868310156200054a578489015162000546601f8916826200043a565b8355505b6001600288020188555050505b505050505050565b61472d806200056f6000396000f3fe6080604052600436106101b65760003560e01c80635bdaa2c8116100ec578063a22cb4651161008a578063e3a33a6d11610064578063e3a33a6d146105d7578063e985e9c514610602578063ec9d450a1461063f578063f242432a1461066a576101b6565b8063a22cb46514610534578063b7704c491461055d578063cfa934961461059a576101b6565b80638001aef5116100c65780638001aef5146104995780638da5cb5b146104a357806395544ae6146104ce5780639c5f8385146104f7576101b6565b80635bdaa2c81461041a5780636afa174f1461044557806378a3183f1461046e576101b6565b80632e1a7d4d1161015957806344b1c6321161013357806344b1c6321461036f5780634b5e8d631461039b5780634e1273f4146103b257806357eaf86d146103ef576101b6565b80632e1a7d4d146103065780632eb2c2d61461032f578063373058b814610358576101b6565b806303c833021161019557806303c833021461025e578063089670d7146102755780630e89341c1461028c5780631da7180d146102c9576101b6565b8062fdd58e146101bb5780630121b93f146101f857806301ffc9a714610221575b600080fd5b3480156101c757600080fd5b506101e260048036038101906101dd9190612ca9565b610693565b6040516101ef9190612cf8565b60405180910390f35b34801561020457600080fd5b5061021f600480360381019061021a9190612d13565b61075b565b005b34801561022d57600080fd5b5061024860048036038101906102439190612d98565b6108ec565b6040516102559190612de0565b60405180910390f35b34801561026a57600080fd5b506102736109ce565b005b34801561028157600080fd5b5061028a610d15565b005b34801561029857600080fd5b506102b360048036038101906102ae9190612d13565b610dc9565b6040516102c09190612e8b565b60405180910390f35b3480156102d557600080fd5b506102f060048036038101906102eb9190612d13565b610e5d565b6040516102fd9190612ebc565b60405180910390f35b34801561031257600080fd5b5061032d60048036038101906103289190612d13565b610e9c565b005b34801561033b57600080fd5b50610356600480360381019061035191906130d4565b6110f7565b005b34801561036457600080fd5b5061036d611198565b005b34801561037b57600080fd5b5061038461130f565b6040516103929291906131a3565b60405180910390f35b3480156103a757600080fd5b506103b0611320565b005b3480156103be57600080fd5b506103d960048036038101906103d4919061328f565b611501565b6040516103e691906133c5565b60405180910390f35b3480156103fb57600080fd5b5061040461161a565b6040516104119190612cf8565b60405180910390f35b34801561042657600080fd5b5061042f611620565b60405161043c9190612cf8565b60405180910390f35b34801561045157600080fd5b5061046c60048036038101906104679190612ca9565b61162c565b005b34801561047a57600080fd5b506104836117a0565b6040516104909190612cf8565b60405180910390f35b6104a16117a6565b005b3480156104af57600080fd5b506104b8611932565b6040516104c59190612ebc565b60405180910390f35b3480156104da57600080fd5b506104f560048036038101906104f091906133e7565b611958565b005b34801561050357600080fd5b5061051e600480360381019061051991906133e7565b611ad6565b60405161052b9190612de0565b60405180910390f35b34801561054057600080fd5b5061055b60048036038101906105569190613440565b611b84565b005b34801561056957600080fd5b50610584600480360381019061057f91906133e7565b611b9a565b6040516105919190612cf8565b60405180910390f35b3480156105a657600080fd5b506105c160048036038101906105bc91906133e7565b611c3f565b6040516105ce9190612de0565b60405180910390f35b3480156105e357600080fd5b506105ec611ce4565b6040516105f99190612cf8565b60405180910390f35b34801561060e57600080fd5b5061062960048036038101906106249190613480565b611e3f565b6040516106369190612de0565b60405180910390f35b34801561064b57600080fd5b50610654611ed3565b6040516106619190612cf8565b60405180910390f35b34801561067657600080fd5b50610691600480360381019061068c91906134c0565b611f6b565b005b60008073ffffffffffffffffffffffffffffffffffffffff168373ffffffffffffffffffffffffffffffffffffffff1603610703576040517f08c379a00000000000000000000000000000000000000000000000000000000081526004016106fa906135c9565b60405180910390fd5b60008083815260200190815260200160002060008473ffffffffffffffffffffffffffffffffffffffff1673ffffffffffffffffffffffffffffffffffffffff16815260200190815260200160002054905092915050565b61076433611ad6565b6107a3576040517f08c379a000000000000000000000000000000000000000000000000000000000815260040161079a9061365b565b60405180910390fd5b6000600960003373ffffffffffffffffffffffffffffffffffffffff1673ffffffffffffffffffffffffffffffffffffffff16815260200190815260200160002090508060010160009054906101000a900460ff1615610838576040517f08c379a000000000000000000000000000000000000000000000000000000000815260040161082f906136ed565b60405180910390fd5b60008214806108475750600182145b610886576040517f08c379a000000000000000000000000000000000000000000000000000000000815260040161087d9061377f565b60405180910390fd5b60018160010160006101000a81548160ff0219169083151502179055508181600201819055508060000154600c83815481106108c5576108c461379f565b5b9060005260206000200160000160008282546108e191906137fd565b925050819055505050565b60007fd9b67a26000000000000000000000000000000000000000000000000000000007bffffffffffffffffffffffffffffffffffffffffffffffffffffffff1916827bffffffffffffffffffffffffffffffffffffffffffffffffffffffff191614806109b757507f0e89341c000000000000000000000000000000000000000000000000000000007bffffffffffffffffffffffffffffffffffffffffffffffffffffffff1916827bffffffffffffffffffffffffffffffffffffffffffffffffffffffff1916145b806109c757506109c68261200c565b5b9050919050565b600360009054906101000a900473ffffffffffffffffffffffffffffffffffffffff1673ffffffffffffffffffffffffffffffffffffffff163373ffffffffffffffffffffffffffffffffffffffff1614610a5e576040517f08c379a0000000000000000000000000000000000000000000000000000000008152600401610a559061387d565b60405180910390fd5b6000600760009054906101000a900473ffffffffffffffffffffffffffffffffffffffff1673ffffffffffffffffffffffffffffffffffffffff1663ec9d450a6040518163ffffffff1660e01b8152600401602060405180830381865afa158015610acd573d6000803e3d6000fd5b505050506040513d601f19601f82011682018060405250810190610af191906138b2565b905060006064600583610b0491906138df565b610b0e9190613968565b905060008111610b53576040517f08c379a0000000000000000000000000000000000000000000000000000000008152600401610b4a90613a0b565b60405180910390fd5b60005b600480549050811015610d1057600060048281548110610b7957610b7861379f565b5b9060005260206000200160009054906101000a900473ffffffffffffffffffffffffffffffffffffffff1690506000600760009054906101000a900473ffffffffffffffffffffffffffffffffffffffff1673ffffffffffffffffffffffffffffffffffffffff166312cae7af836040518263ffffffff1660e01b8152600401610c039190612ebc565b602060405180830381865afa158015610c20573d6000803e3d6000fd5b505050506040513d601f19601f82011682018060405250810190610c4491906138b2565b90506000858583610c5591906138df565b610c5f9190613968565b90506000811115610cfa57600760009054906101000a900473ffffffffffffffffffffffffffffffffffffffff1673ffffffffffffffffffffffffffffffffffffffff166390b3586782856040518363ffffffff1660e01b8152600401610cc7929190613a2b565b600060405180830381600087803b158015610ce157600080fd5b505af1158015610cf5573d6000803e3d6000fd5b505050505b5050508080610d0890613a54565b915050610b56565b505050565b610d1e33611c3f565b610d5d576040517f08c379a0000000000000000000000000000000000000000000000000000000008152600401610d549061365b565b60405180910390fd5b600c600a90806001815401808255809150506001900390600052602060002001600090919091909150600082015481600001555050600c600b90806001815401808255809150506001900390600052602060002001600090919091909150600082015481600001555050565b606060028054610dd890613acb565b80601f0160208091040260200160405190810160405280929190818152602001828054610e0490613acb565b8015610e515780601f10610e2657610100808354040283529160200191610e51565b820191906000526020600020905b815481529060010190602001808311610e3457829003601f168201915b50505050509050919050565b60048181548110610e6d57600080fd5b906000526020600020016000915054906101000a900473ffffffffffffffffffffffffffffffffffffffff1681565b610ea533611ad6565b610ee4576040517f08c379a0000000000000000000000000000000000000000000000000000000008152600401610edb9061365b565b60405180910390fd5b80600760009054906101000a900473ffffffffffffffffffffffffffffffffffffffff1673ffffffffffffffffffffffffffffffffffffffff166312cae7af336040518263ffffffff1660e01b8152600401610f409190612ebc565b602060405180830381865afa158015610f5d573d6000803e3d6000fd5b505050506040513d601f19601f82011682018060405250810190610f8191906138b2565b1015610fc2576040517f08c379a0000000000000000000000000000000000000000000000000000000008152600401610fb990613b48565b60405180910390fd5b600067016345785d8a000082610fd891906138df565b90508047101561101d576040517f08c379a000000000000000000000000000000000000000000000000000000000815260040161101490613bb4565b60405180910390fd5b600760009054906101000a900473ffffffffffffffffffffffffffffffffffffffff1673ffffffffffffffffffffffffffffffffffffffff1663c49faa9583336040518363ffffffff1660e01b815260040161107a929190613a2b565b600060405180830381600087803b15801561109457600080fd5b505af11580156110a8573d6000803e3d6000fd5b505050503373ffffffffffffffffffffffffffffffffffffffff166108fc829081150290604051600060405180830381858888f193505050501580156110f2573d6000803e3d6000fd5b505050565b6110ff612076565b73ffffffffffffffffffffffffffffffffffffffff168573ffffffffffffffffffffffffffffffffffffffff16148061114557506111448561113f612076565b611e3f565b5b611184576040517f08c379a000000000000000000000000000000000000000000000000000000000815260040161117b90613c46565b60405180910390fd5b611191858585858561207e565b5050505050565b600360009054906101000a900473ffffffffffffffffffffffffffffffffffffffff1673ffffffffffffffffffffffffffffffffffffffff163373ffffffffffffffffffffffffffffffffffffffff1614611228576040517f08c379a000000000000000000000000000000000000000000000000000000000815260040161121f9061387d565b60405180910390fd5b6000611232611ce4565b90507fffffffffffffffffffffffffffffffffffffffffffffffffffffffffffffffff8103611296576040517f08c379a000000000000000000000000000000000000000000000000000000000815260040161128d90613cb2565b60405180910390fd5b600081036112d757600a600560008282546112b191906137fd565b92505081905550600a600660008282546112cb9190613cd2565b9250508190555061130c565b600a600560008282546112ea9190613cd2565b92505081905550600a6006600082825461130491906137fd565b925050819055505b50565b600080600554600654915091509091565b61132933611ad6565b15611369576040517f08c379a000000000000000000000000000000000000000000000000000000000815260040161136090613d52565b60405180910390fd5b6004339080600181540180825580915050600190039060005260206000200160009091909190916101000a81548173ffffffffffffffffffffffffffffffffffffffff021916908373ffffffffffffffffffffffffffffffffffffffff160217905550600760009054906101000a900473ffffffffffffffffffffffffffffffffffffffff1673ffffffffffffffffffffffffffffffffffffffff166390b358676000336040518363ffffffff1660e01b815260040161142a929190613db7565b600060405180830381600087803b15801561144457600080fd5b505af1158015611458573d6000803e3d6000fd5b505050506000600960003373ffffffffffffffffffffffffffffffffffffffff1673ffffffffffffffffffffffffffffffffffffffff16815260200190815260200160002060010160006101000a81548160ff0219169083151502179055506000600960003373ffffffffffffffffffffffffffffffffffffffff1673ffffffffffffffffffffffffffffffffffffffff16815260200190815260200160002060000181905550565b60608151835114611547576040517f08c379a000000000000000000000000000000000000000000000000000000000815260040161153e90613e52565b60405180910390fd5b6000835167ffffffffffffffff81111561156457611563612edc565b5b6040519080825280602002602001820160405280156115925781602001602082028036833780820191505090505b50905060005b845181101561160f576115df8582815181106115b7576115b661379f565b5b60200260200101518583815181106115d2576115d161379f565b5b6020026020010151610693565b8282815181106115f2576115f161379f565b5b6020026020010181815250508061160890613a54565b9050611598565b508091505092915050565b60055481565b67016345785d8a000081565b61163533611ad6565b611674576040517f08c379a000000000000000000000000000000000000000000000000000000000815260040161166b9061365b565b60405180910390fd5b61167d82611ad6565b6116bc576040517f08c379a00000000000000000000000000000000000000000000000000000000081526004016116b390613ee4565b60405180910390fd5b600760009054906101000a900473ffffffffffffffffffffffffffffffffffffffff1673ffffffffffffffffffffffffffffffffffffffff16637c524ffc3384846040518463ffffffff1660e01b815260040161171b93929190613f04565b600060405180830381600087803b15801561173557600080fd5b505af1158015611749573d6000803e3d6000fd5b5050505061175633611b9a565b600960003373ffffffffffffffffffffffffffffffffffffffff1673ffffffffffffffffffffffffffffffffffffffff168152602001908152602001600020600001819055505050565b60065481565b6117af33611ad6565b6117ee576040517f08c379a00000000000000000000000000000000000000000000000000000000081526004016117e59061365b565b60405180910390fd5b67016345785d8a0000341015611839576040517f08c379a000000000000000000000000000000000000000000000000000000000815260040161183090613f87565b60405180910390fd5b600067016345785d8a00003461184f9190613968565b9050600760009054906101000a900473ffffffffffffffffffffffffffffffffffffffff1673ffffffffffffffffffffffffffffffffffffffff166390b3586782336040518363ffffffff1660e01b81526004016118ae929190613a2b565b600060405180830381600087803b1580156118c857600080fd5b505af11580156118dc573d6000803e3d6000fd5b505050506118e933611b9a565b600960003373ffffffffffffffffffffffffffffffffffffffff1673ffffffffffffffffffffffffffffffffffffffff1681526020019081526020016000206000018190555050565b600360009054906101000a900473ffffffffffffffffffffffffffffffffffffffff1681565b61196133611ad6565b6119a0576040517f08c379a00000000000000000000000000000000000000000000000000000000081526004016119979061365b565b60405180910390fd5b6119a981611ad6565b6119e8576040517f08c379a00000000000000000000000000000000000000000000000000000000081526004016119df90613ee4565b60405180910390fd5b60146119f382611b9a565b1015611a34576040517f08c379a0000000000000000000000000000000000000000000000000000000008152600401611a2b90614019565b60405180910390fd5b600860009054906101000a900473ffffffffffffffffffffffffffffffffffffffff1673ffffffffffffffffffffffffffffffffffffffff1663c6ef0a5b826040518263ffffffff1660e01b8152600401611a8f9190612ebc565b6020604051808303816000875af1158015611aae573d6000803e3d6000fd5b505050506040513d601f19601f82011682018060405250810190611ad291906138b2565b5050565b600080600090505b600480549050811015611b79578273ffffffffffffffffffffffffffffffffffffffff1660048281548110611b1657611b1561379f565b5b9060005260206000200160009054906101000a900473ffffffffffffffffffffffffffffffffffffffff1673ffffffffffffffffffffffffffffffffffffffff1603611b66576001915050611b7f565b8080611b7190613a54565b915050611ade565b50600090505b919050565b611b96611b8f612076565b838361239f565b5050565b6000600760009054906101000a900473ffffffffffffffffffffffffffffffffffffffff1673ffffffffffffffffffffffffffffffffffffffff166370a08231836040518263ffffffff1660e01b8152600401611bf79190612ebc565b602060405180830381865afa158015611c14573d6000803e3d6000fd5b505050506040513d601f19601f82011682018060405250810190611c3891906138b2565b9050919050565b6000600860009054906101000a900473ffffffffffffffffffffffffffffffffffffffff1673ffffffffffffffffffffffffffffffffffffffff1663b0dfc786836040518263ffffffff1660e01b8152600401611c9c9190612ebc565b602060405180830381865afa158015611cb9573d6000803e3d6000fd5b505050506040513d601f19601f82011682018060405250810190611cdd919061404e565b9050919050565b6000806002600760009054906101000a900473ffffffffffffffffffffffffffffffffffffffff1673ffffffffffffffffffffffffffffffffffffffff1663ec9d450a6040518163ffffffff1660e01b8152600401602060405180830381865afa158015611d56573d6000803e3d6000fd5b505050506040513d601f19601f82011682018060405250810190611d7a91906138b2565b611d849190613968565b90506000805b600c80549050811015611e285781600c8281548110611dac57611dab61379f565b5b9060005260206000200160000154118015611de8575082600c8281548110611dd757611dd661379f565b5b906000526020600020016000015410155b15611e1557600c8181548110611e0157611e0061379f565b5b906000526020600020016000015491508093505b8080611e2090613a54565b915050611d8a565b5081811015611e3a57611e3961407b565b5b505090565b6000600160008473ffffffffffffffffffffffffffffffffffffffff1673ffffffffffffffffffffffffffffffffffffffff16815260200190815260200160002060008373ffffffffffffffffffffffffffffffffffffffff1673ffffffffffffffffffffffffffffffffffffffff16815260200190815260200160002060009054906101000a900460ff16905092915050565b6000600760009054906101000a900473ffffffffffffffffffffffffffffffffffffffff1673ffffffffffffffffffffffffffffffffffffffff1663ec9d450a6040518163ffffffff1660e01b8152600401602060405180830381865afa158015611f42573d6000803e3d6000fd5b505050506040513d601f19601f82011682018060405250810190611f6691906138b2565b905090565b611f73612076565b73ffffffffffffffffffffffffffffffffffffffff168573ffffffffffffffffffffffffffffffffffffffff161480611fb95750611fb885611fb3612076565b611e3f565b5b611ff8576040517f08c379a0000000000000000000000000000000000000000000000000000000008152600401611fef9061411c565b60405180910390fd5b612005858585858561250b565b5050505050565b60007f01ffc9a7000000000000000000000000000000000000000000000000000000007bffffffffffffffffffffffffffffffffffffffffffffffffffffffff1916827bffffffffffffffffffffffffffffffffffffffffffffffffffffffff1916149050919050565b600033905090565b81518351146120c2576040517f08c379a00000000000000000000000000000000000000000000000000000000081526004016120b9906141ae565b60405180910390fd5b600073ffffffffffffffffffffffffffffffffffffffff168473ffffffffffffffffffffffffffffffffffffffff1603612131576040517f08c379a000000000000000000000000000000000000000000000000000000000815260040161212890614240565b60405180910390fd5b600061213b612076565b905061214b8187878787876127a6565b60005b84518110156122fc57600085828151811061216c5761216b61379f565b5b60200260200101519050600085838151811061218b5761218a61379f565b5b60200260200101519050600080600084815260200190815260200160002060008b73ffffffffffffffffffffffffffffffffffffffff1673ffffffffffffffffffffffffffffffffffffffff1681526020019081526020016000205490508181101561222c576040517f08c379a0000000000000000000000000000000000000000000000000000000008152600401612223906142d2565b60405180910390fd5b81810360008085815260200190815260200160002060008c73ffffffffffffffffffffffffffffffffffffffff1673ffffffffffffffffffffffffffffffffffffffff168152602001908152602001600020819055508160008085815260200190815260200160002060008b73ffffffffffffffffffffffffffffffffffffffff1673ffffffffffffffffffffffffffffffffffffffff16815260200190815260200160002060008282546122e191906137fd565b92505081905550505050806122f590613a54565b905061214e565b508473ffffffffffffffffffffffffffffffffffffffff168673ffffffffffffffffffffffffffffffffffffffff168273ffffffffffffffffffffffffffffffffffffffff167f4a39dc06d4c0dbc64b70af90fd698a233a518aa5d07e595d983b8c0526c8f7fb87876040516123739291906142f2565b60405180910390a46123898187878787876127ae565b6123978187878787876127b6565b505050505050565b8173ffffffffffffffffffffffffffffffffffffffff168373ffffffffffffffffffffffffffffffffffffffff160361240d576040517f08c379a00000000000000000000000000000000000000000000000000000000081526004016124049061439b565b60405180910390fd5b80600160008573ffffffffffffffffffffffffffffffffffffffff1673ffffffffffffffffffffffffffffffffffffffff16815260200190815260200160002060008473ffffffffffffffffffffffffffffffffffffffff1673ffffffffffffffffffffffffffffffffffffffff16815260200190815260200160002060006101000a81548160ff0219169083151502179055508173ffffffffffffffffffffffffffffffffffffffff168373ffffffffffffffffffffffffffffffffffffffff167f17307eab39ab6107e8899845ad3d59bd9653f200f220920489ca2b5937696c31836040516124fe9190612de0565b60405180910390a3505050565b600073ffffffffffffffffffffffffffffffffffffffff168473ffffffffffffffffffffffffffffffffffffffff160361257a576040517f08c379a000000000000000000000000000000000000000000000000000000000815260040161257190614240565b60405180910390fd5b6000612584612076565b905060006125918561298d565b9050600061259e8561298d565b90506125ae8389898585896127a6565b600080600088815260200190815260200160002060008a73ffffffffffffffffffffffffffffffffffffffff1673ffffffffffffffffffffffffffffffffffffffff16815260200190815260200160002054905085811015612645576040517f08c379a000000000000000000000000000000000000000000000000000000000815260040161263c906142d2565b60405180910390fd5b85810360008089815260200190815260200160002060008b73ffffffffffffffffffffffffffffffffffffffff1673ffffffffffffffffffffffffffffffffffffffff168152602001908152602001600020819055508560008089815260200190815260200160002060008a73ffffffffffffffffffffffffffffffffffffffff1673ffffffffffffffffffffffffffffffffffffffff16815260200190815260200160002060008282546126fa91906137fd565b925050819055508773ffffffffffffffffffffffffffffffffffffffff168973ffffffffffffffffffffffffffffffffffffffff168573ffffffffffffffffffffffffffffffffffffffff167fc3d58168c5ae7397731d063d5bbf3d657854427343f4c083240f7aacaa2d0f628a8a6040516127779291906131a3565b60405180910390a461278d848a8a86868a6127ae565b61279b848a8a8a8a8a612a07565b505050505050505050565b505050505050565b505050505050565b6127d58473ffffffffffffffffffffffffffffffffffffffff16612bde565b15612985578373ffffffffffffffffffffffffffffffffffffffff1663bc197c8187878686866040518663ffffffff1660e01b815260040161281b959493929190614410565b6020604051808303816000875af192505050801561285757506040513d601f19601f82011682018060405250810190612854919061448d565b60015b6128fc576128636144c7565b806308c379a0036128bf57506128776144e9565b8061288257506128c1565b806040517f08c379a00000000000000000000000000000000000000000000000000000000081526004016128b69190612e8b565b60405180910390fd5b505b6040517f08c379a00000000000000000000000000000000000000000000000000000000081526004016128f3906145eb565b60405180910390fd5b63bc197c8160e01b7bffffffffffffffffffffffffffffffffffffffffffffffffffffffff1916817bffffffffffffffffffffffffffffffffffffffffffffffffffffffff191614612983576040517f08c379a000000000000000000000000000000000000000000000000000000000815260040161297a9061467d565b60405180910390fd5b505b505050505050565b60606000600167ffffffffffffffff8111156129ac576129ab612edc565b5b6040519080825280602002602001820160405280156129da5781602001602082028036833780820191505090505b50905082816000815181106129f2576129f161379f565b5b60200260200101818152505080915050919050565b612a268473ffffffffffffffffffffffffffffffffffffffff16612bde565b15612bd6578373ffffffffffffffffffffffffffffffffffffffff1663f23a6e6187878686866040518663ffffffff1660e01b8152600401612a6c95949392919061469d565b6020604051808303816000875af1925050508015612aa857506040513d601f19601f82011682018060405250810190612aa5919061448d565b60015b612b4d57612ab46144c7565b806308c379a003612b105750612ac86144e9565b80612ad35750612b12565b806040517f08c379a0000000000000000000000000000000000000000000000000000000008152600401612b079190612e8b565b60405180910390fd5b505b6040517f08c379a0000000000000000000000000000000000000000000000000000000008152600401612b44906145eb565b60405180910390fd5b63f23a6e6160e01b7bffffffffffffffffffffffffffffffffffffffffffffffffffffffff1916817bffffffffffffffffffffffffffffffffffffffffffffffffffffffff191614612bd4576040517f08c379a0000000000000000000000000000000000000000000000000000000008152600401612bcb9061467d565b60405180910390fd5b505b505050505050565b6000808273ffffffffffffffffffffffffffffffffffffffff163b119050919050565b6000604051905090565b600080fd5b600080fd5b600073ffffffffffffffffffffffffffffffffffffffff82169050919050565b6000612c4082612c15565b9050919050565b612c5081612c35565b8114612c5b57600080fd5b50565b600081359050612c6d81612c47565b92915050565b6000819050919050565b612c8681612c73565b8114612c9157600080fd5b50565b600081359050612ca381612c7d565b92915050565b60008060408385031215612cc057612cbf612c0b565b5b6000612cce85828601612c5e565b9250506020612cdf85828601612c94565b9150509250929050565b612cf281612c73565b82525050565b6000602082019050612d0d6000830184612ce9565b92915050565b600060208284031215612d2957612d28612c0b565b5b6000612d3784828501612c94565b91505092915050565b60007fffffffff0000000000000000000000000000000000000000000000000000000082169050919050565b612d7581612d40565b8114612d8057600080fd5b50565b600081359050612d9281612d6c565b92915050565b600060208284031215612dae57612dad612c0b565b5b6000612dbc84828501612d83565b91505092915050565b60008115159050919050565b612dda81612dc5565b82525050565b6000602082019050612df56000830184612dd1565b92915050565b600081519050919050565b600082825260208201905092915050565b60005b83811015612e35578082015181840152602081019050612e1a565b60008484015250505050565b6000601f19601f8301169050919050565b6000612e5d82612dfb565b612e678185612e06565b9350612e77818560208601612e17565b612e8081612e41565b840191505092915050565b60006020820190508181036000830152612ea58184612e52565b905092915050565b612eb681612c35565b82525050565b6000602082019050612ed16000830184612ead565b92915050565b600080fd5b7f4e487b7100000000000000000000000000000000000000000000000000000000600052604160045260246000fd5b612f1482612e41565b810181811067ffffffffffffffff82111715612f3357612f32612edc565b5b80604052505050565b6000612f46612c01565b9050612f528282612f0b565b919050565b600067ffffffffffffffff821115612f7257612f71612edc565b5b602082029050602081019050919050565b600080fd5b6000612f9b612f9684612f57565b612f3c565b90508083825260208201905060208402830185811115612fbe57612fbd612f83565b5b835b81811015612fe75780612fd38882612c94565b845260208401935050602081019050612fc0565b5050509392505050565b600082601f83011261300657613005612ed7565b5b8135613016848260208601612f88565b91505092915050565b600080fd5b600067ffffffffffffffff82111561303f5761303e612edc565b5b61304882612e41565b9050602081019050919050565b82818337600083830152505050565b600061307761307284613024565b612f3c565b9050828152602081018484840111156130935761309261301f565b5b61309e848285613055565b509392505050565b600082601f8301126130bb576130ba612ed7565b5b81356130cb848260208601613064565b91505092915050565b600080600080600060a086880312156130f0576130ef612c0b565b5b60006130fe88828901612c5e565b955050602061310f88828901612c5e565b945050604086013567ffffffffffffffff8111156131305761312f612c10565b5b61313c88828901612ff1565b935050606086013567ffffffffffffffff81111561315d5761315c612c10565b5b61316988828901612ff1565b925050608086013567ffffffffffffffff81111561318a57613189612c10565b5b613196888289016130a6565b9150509295509295909350565b60006040820190506131b86000830185612ce9565b6131c56020830184612ce9565b9392505050565b600067ffffffffffffffff8211156131e7576131e6612edc565b5b602082029050602081019050919050565b600061320b613206846131cc565b612f3c565b9050808382526020820190506020840283018581111561322e5761322d612f83565b5b835b8181101561325757806132438882612c5e565b845260208401935050602081019050613230565b5050509392505050565b600082601f83011261327657613275612ed7565b5b81356132868482602086016131f8565b91505092915050565b600080604083850312156132a6576132a5612c0b565b5b600083013567ffffffffffffffff8111156132c4576132c3612c10565b5b6132d085828601613261565b925050602083013567ffffffffffffffff8111156132f1576132f0612c10565b5b6132fd85828601612ff1565b9150509250929050565b600081519050919050565b600082825260208201905092915050565b6000819050602082019050919050565b61333c81612c73565b82525050565b600061334e8383613333565b60208301905092915050565b6000602082019050919050565b600061337282613307565b61337c8185613312565b935061338783613323565b8060005b838110156133b857815161339f8882613342565b97506133aa8361335a565b92505060018101905061338b565b5085935050505092915050565b600060208201905081810360008301526133df8184613367565b905092915050565b6000602082840312156133fd576133fc612c0b565b5b600061340b84828501612c5e565b91505092915050565b61341d81612dc5565b811461342857600080fd5b50565b60008135905061343a81613414565b92915050565b6000806040838503121561345757613456612c0b565b5b600061346585828601612c5e565b92505060206134768582860161342b565b9150509250929050565b6000806040838503121561349757613496612c0b565b5b60006134a585828601612c5e565b92505060206134b685828601612c5e565b9150509250929050565b600080600080600060a086880312156134dc576134db612c0b565b5b60006134ea88828901612c5e565b95505060206134fb88828901612c5e565b945050604061350c88828901612c94565b935050606061351d88828901612c94565b925050608086013567ffffffffffffffff81111561353e5761353d612c10565b5b61354a888289016130a6565b9150509295509295909350565b7f455243313135353a2062616c616e636520717565727920666f7220746865207a60008201527f65726f2061646472657373000000000000000000000000000000000000000000602082015250565b60006135b3602b83612e06565b91506135be82613557565b604082019050919050565b600060208201905081810360008301526135e2816135a6565b9050919050565b7f4f6e6c79207265676973746572656420696e766573746f72732063616e20706560008201527f72666f726d207468697320616374696f6e000000000000000000000000000000602082015250565b6000613645603183612e06565b9150613650826135e9565b604082019050919050565b6000602082019050818103600083015261367481613638565b9050919050565b7f566f74652044656e6965643a205468697320757365722068617320616c72656160008201527f647920636173746564206120766f746521000000000000000000000000000000602082015250565b60006136d7603183612e06565b91506136e28261367b565b604082019050919050565b60006020820190508181036000830152613706816136ca565b9050919050565b7f496e76616c696420566f74653a2054686520766f74652070726f706f73616c2060008201527f656e746572656420697320696e76616c69642100000000000000000000000000602082015250565b6000613769603383612e06565b91506137748261370d565b604082019050919050565b600060208201905081810360008301526137988161375c565b9050919050565b7f4e487b7100000000000000000000000000000000000000000000000000000000600052603260045260246000fd5b7f4e487b7100000000000000000000000000000000000000000000000000000000600052601160045260246000fd5b600061380882612c73565b915061381383612c73565b925082820190508082111561382b5761382a6137ce565b5b92915050565b7f43616c6c6572206973206e6f7420746865206f776e6572000000000000000000600082015250565b6000613867601783612e06565b915061387282613831565b602082019050919050565b600060208201905081810360008301526138968161385a565b9050919050565b6000815190506138ac81612c7d565b92915050565b6000602082840312156138c8576138c7612c0b565b5b60006138d68482850161389d565b91505092915050565b60006138ea82612c73565b91506138f583612c73565b9250817fffffffffffffffffffffffffffffffffffffffffffffffffffffffffffffffff048311821515161561392e5761392d6137ce565b5b828202905092915050565b7f4e487b7100000000000000000000000000000000000000000000000000000000600052601260045260246000fd5b600061397382612c73565b915061397e83612c73565b92508261398e5761398d613939565b5b828204905092915050565b7f4e6f206469766964656e647320617661696c61626c6520746f2064697374726960008201527f6275746500000000000000000000000000000000000000000000000000000000602082015250565b60006139f5602483612e06565b9150613a0082613999565b604082019050919050565b60006020820190508181036000830152613a24816139e8565b9050919050565b6000604082019050613a406000830185612ce9565b613a4d6020830184612ead565b9392505050565b6000613a5f82612c73565b91507fffffffffffffffffffffffffffffffffffffffffffffffffffffffffffffffff8203613a9157613a906137ce565b5b600182019050919050565b7f4e487b7100000000000000000000000000000000000000000000000000000000600052602260045260246000fd5b60006002820490506001821680613ae357607f821691505b602082108103613af657613af5613a9c565b5b50919050565b7f496e73756666696369656e74204346542062616c616e63650000000000000000600082015250565b6000613b32601883612e06565b9150613b3d82613afc565b602082019050919050565b60006020820190508181036000830152613b6181613b25565b9050919050565b7f496e73756666696369656e742045544820696e20636f6e747261637400000000600082015250565b6000613b9e601c83612e06565b9150613ba982613b68565b602082019050919050565b60006020820190508181036000830152613bcd81613b91565b9050919050565b7f455243313135353a207472616e736665722063616c6c6572206973206e6f742060008201527f6f776e6572206e6f7220617070726f7665640000000000000000000000000000602082015250565b6000613c30603283612e06565b9150613c3b82613bd4565b604082019050919050565b60006020820190508181036000830152613c5f81613c23565b9050919050565b7f4e6f20636c6561722077696e6e65722079657400000000000000000000000000600082015250565b6000613c9c601383612e06565b9150613ca782613c66565b602082019050919050565b60006020820190508181036000830152613ccb81613c8f565b9050919050565b6000613cdd82612c73565b9150613ce883612c73565b9250828203905081811115613d0057613cff6137ce565b5b92915050565b7f496e766573746f7220697320616c726561647920726567697374657265640000600082015250565b6000613d3c601e83612e06565b9150613d4782613d06565b602082019050919050565b60006020820190508181036000830152613d6b81613d2f565b9050919050565b6000819050919050565b6000819050919050565b6000613da1613d9c613d9784613d72565b613d7c565b612c73565b9050919050565b613db181613d86565b82525050565b6000604082019050613dcc6000830185613da8565b613dd96020830184612ead565b9392505050565b7f455243313135353a206163636f756e747320616e6420696473206c656e67746860008201527f206d69736d617463680000000000000000000000000000000000000000000000602082015250565b6000613e3c602983612e06565b9150613e4782613de0565b604082019050919050565b60006020820190508181036000830152613e6b81613e2f565b9050919050565b7f526563697069656e74206d75737420626520612072656769737465726564206960008201527f6e766573746f7200000000000000000000000000000000000000000000000000602082015250565b6000613ece602783612e06565b9150613ed982613e72565b604082019050919050565b60006020820190508181036000830152613efd81613ec1565b9050919050565b6000606082019050613f196000830186612ead565b613f266020830185612ead565b613f336040830184612ce9565b949350505050565b7f4e6f7420656e6f756768204554482073656e7400000000000000000000000000600082015250565b6000613f71601383612e06565b9150613f7c82613f3b565b602082019050919050565b60006020820190508181036000830152613fa081613f64565b9050919050565b7f5573657220446f6573206e6f7420486f6c64207175616c696679696e6720616d60008201527f6f756e74206f662043465420666f7220476f7665726e616e6365200000000000602082015250565b6000614003603b83612e06565b915061400e82613fa7565b604082019050919050565b6000602082019050818103600083015261403281613ff6565b9050919050565b60008151905061404881613414565b92915050565b60006020828403121561406457614063612c0b565b5b600061407284828501614039565b91505092915050565b7f4e487b7100000000000000000000000000000000000000000000000000000000600052600160045260246000fd5b7f455243313135353a2063616c6c6572206973206e6f74206f776e6572206e6f7260008201527f20617070726f7665640000000000000000000000000000000000000000000000602082015250565b6000614106602983612e06565b9150614111826140aa565b604082019050919050565b60006020820190508181036000830152614135816140f9565b9050919050565b7f455243313135353a2069647320616e6420616d6f756e7473206c656e6774682060008201527f6d69736d61746368000000000000000000000000000000000000000000000000602082015250565b6000614198602883612e06565b91506141a38261413c565b604082019050919050565b600060208201905081810360008301526141c78161418b565b9050919050565b7f455243313135353a207472616e7366657220746f20746865207a65726f20616460008201527f6472657373000000000000000000000000000000000000000000000000000000602082015250565b600061422a602583612e06565b9150614235826141ce565b604082019050919050565b600060208201905081810360008301526142598161421d565b9050919050565b7f455243313135353a20696e73756666696369656e742062616c616e636520666f60008201527f72207472616e7366657200000000000000000000000000000000000000000000602082015250565b60006142bc602a83612e06565b91506142c782614260565b604082019050919050565b600060208201905081810360008301526142eb816142af565b9050919050565b6000604082019050818103600083015261430c8185613367565b905081810360208301526143208184613367565b90509392505050565b7f455243313135353a2073657474696e6720617070726f76616c2073746174757360008201527f20666f722073656c660000000000000000000000000000000000000000000000602082015250565b6000614385602983612e06565b915061439082614329565b604082019050919050565b600060208201905081810360008301526143b481614378565b9050919050565b600081519050919050565b600082825260208201905092915050565b60006143e2826143bb565b6143ec81856143c6565b93506143fc818560208601612e17565b61440581612e41565b840191505092915050565b600060a0820190506144256000830188612ead565b6144326020830187612ead565b81810360408301526144448186613367565b905081810360608301526144588185613367565b9050818103608083015261446c81846143d7565b90509695505050505050565b60008151905061448781612d6c565b92915050565b6000602082840312156144a3576144a2612c0b565b5b60006144b184828501614478565b91505092915050565b60008160e01c9050919050565b600060033d11156144e65760046000803e6144e36000516144ba565b90505b90565b600060443d10614576576144fb612c01565b60043d036004823e80513d602482011167ffffffffffffffff82111715614523575050614576565b808201805167ffffffffffffffff8111156145415750505050614576565b80602083010160043d03850181111561455e575050505050614576565b61456d82602001850186612f0b565b82955050505050505b90565b7f455243313135353a207472616e7366657220746f206e6f6e204552433131353560008201527f526563656976657220696d706c656d656e746572000000000000000000000000602082015250565b60006145d5603483612e06565b91506145e082614579565b604082019050919050565b60006020820190508181036000830152614604816145c8565b9050919050565b7f455243313135353a204552433131353552656365697665722072656a6563746560008201527f6420746f6b656e73000000000000000000000000000000000000000000000000602082015250565b6000614667602883612e06565b91506146728261460b565b604082019050919050565b600060208201905081810360008301526146968161465a565b9050919050565b600060a0820190506146b26000830188612ead565b6146bf6020830187612ead565b6146cc6040830186612ce9565b6146d96060830185612ce9565b81810360808301526146eb81846143d7565b9050969550505050505056fea2646970667358221220f87f7d68f908c97dbf50bcb4801707d2e8e039c8b0913a41a369f08b82c91c9264736f6c6343000810003368747470733a2f2f636861696e66756e642e6578616d706c652f6170692f746f6b656e2f7b69647d2e6a736f6e",
  "immutableReferences": {},
  "source": "// SPDX-License-Identifier: MIT\npragma solidity ^0.8.0;\nimport \"./ChainFundToken.sol\";\nimport \"./GovernanceNFT.sol\";\nimport \"@openzeppelin/contracts/token/ERC1155/ERC1155.sol\";\nimport \"@openzeppelin/contracts/token/ERC20/IERC20.sol\";\nimport \"@openzeppelin/contracts/utils/math/SafeMath.sol\";\n\ncontract ChainFundERC1155 is ERC1155 {\n    using SafeMath for uint256;\n    address public owner;\n    uint256 public constant ETHPerCFT = 0.1 ether;\n    address[] public registeredInvestors;\n    uint256 public btcratio = 50;\n    uint256 public usdtratio = 50;\n\n    ChainFundToken private cftToken;\n    GovernanceNFT private govNFT;\n\n    modifier onlyOwner() {\n        require(msg.sender == owner, \"Caller is not the owner\");\n        _; }\n\n    modifier onlyRegisteredInvestor() {\n        require(isInvestorRegistered(msg.sender), \"Only registered investors can perform this action\");\n        _;\n    }\n    modifier onlyGoverningInvestors() {\n        require(hasGovernanceNFT(msg.sender), \"Only registered investors can perform this action\");\n        _;\n    }\n\n    constructor(address _erc20Address, address _erc721Address) ERC1155(\"https://chainfund.example/api/token/{id}.json\") {\n        owner = msg.sender;\n        cftToken = ChainFundToken(_erc20Address);\n        govNFT = GovernanceNFT(_erc721Address);\n    }\n\n    struct regInvestor {\n        uint256 weight;\n        bool voted;\n        uint256 vote;\n    }\n    mapping(address => regInvestor) regInvestors;\n    struct Proposal {\n        uint256 voteCount;\n    }\n\n    Proposal btc;\n    Proposal usdt;\n    Proposal[] proposals;\n    function initializeProposals() public onlyGoverningInvestors {\n        proposals.push(btc); \n        proposals.push(usdt);\n    }\n    // Function to register investors\n    function registerInvestor() external {\n        require(!isInvestorRegistered(msg.sender), \"Investor is already registered\");\n        registeredInvestors.push(msg.sender);\n        cftToken.mintCFT(0, msg.sender);\n        regInvestors[msg.sender].voted= false; \n        regInvestors[msg.sender].weight=0;\n    }\n\n    function vote(uint256 toProposal) public onlyRegisteredInvestor {\n        regInvestor storage sender = regInvestors[msg.sender];\n        require(!sender.voted, \"Vote Denied: This user has already casted a vote!\");\n        require(toProposal == 0 || toProposal == 1, \"Invalid Vote: The vote proposal entered is invalid!\");\n        sender.voted = true;\n        sender.vote = toProposal;\n        proposals[toProposal].voteCount += sender.weight;\n    }\n\n    function getwinningproposal() public view returns (uint256 winningProposal) {\n        uint256 halfSupply = cftToken.totalCFTSupply() / 2;\n        uint256 winningVoteCount = 0;\n\n        for (uint256 prop = 0; prop < proposals.length; prop++)\n            if (proposals[prop].voteCount > winningVoteCount && proposals[prop].voteCount >= halfSupply) {\n                winningVoteCount = proposals[prop].voteCount;\n                winningProposal = prop;\n            }\n\n        assert(winningVoteCount >= halfSupply);\n    }\n    \nfunction executeProposal() public onlyOwner {\n    uint256 winningProposal = getwinningproposal();\n    require(winningProposal != type(uint256).max, \"No clear winner yet\");\n\n    if (winningProposal == 0) {\n        btcratio += 10;\n        usdtratio -= 10;\n    } else {\n        btcratio -= 10;\n        usdtratio += 10;\n    }\n}\n\n    function getCFTComposition() public view returns(uint256, uint256) {\n        return (btcratio, usdtratio);\n }\n\n\n    // Function to check if an investor is registered\n    function isInvestorRegistered(address investor) public view returns (bool) {\n        for (uint256 i = 0; i < registeredInvestors.length; i++) {\n            if (registeredInvestors[i] == investor) {\n                return true;\n            }\n        }\n        return false;\n    }\n\n    // Function to buy CFT directly in ERC1155 contract\n    function buyCFT() public payable onlyRegisteredInvestor {\n        require((msg.value) >= ETHPerCFT, \"Not enough ETH sent\");\n        uint256 cftAmount = msg.value / ETHPerCFT;\n        cftToken.mintCFT(cftAmount, msg.sender);\n        regInvestors[msg.sender].weight=CFTbalance(msg.sender);\n    }\n\n\n    function CFTbalance(address user) public view returns (uint256) {\n        return cftToken.balanceOf(user);\n    }\n\n    // Function to transfer CFT tokens to another user (only registered investors)\n    function transferCFT(address to, uint256 cftAmount) external onlyRegisteredInvestor {\n        require(isInvestorRegistered(to), \"Recipient must be a registered investor\");\n        cftToken.transferCFT(msg.sender, to, cftAmount);\n        regInvestors[msg.sender].weight=CFTbalance(msg.sender);\n    }\n\n    // Function for users to withdraw ETH based on their CFT holdings\n    function withdraw(uint256 cftAmount) public onlyRegisteredInvestor {\n        require(cftToken.balanceOfUser(msg.sender) >= cftAmount, \"Insufficient CFT balance\");\n        uint256 ethAmount = cftAmount * ETHPerCFT;\n        require(address(this).balance >= ethAmount, \"Insufficient ETH in contract\");\n        cftToken.burnCFT(cftAmount, msg.sender);\n        payable(msg.sender).transfer(ethAmount);\n    }\n\n    function totalCFTSupply() public view returns (uint256) {\n        return cftToken.totalCFTSupply();\n    }\n\n    //Function to mint 5% of total CFT supply and distribute as dividends to registered investors\n    function distributeDividends() public onlyOwner {\n        uint256 totalSupply = cftToken.totalCFTSupply();\n        uint256 dividendAmount = (totalSupply * 5) / 100; // 5% of total supply\n\n        require(dividendAmount > 0, \"No dividends available to distribute\");\n\n        for (uint256 i = 0; i < registeredInvestors.length; i++) {\n            address investor = registeredInvestors[i];\n            uint256 investorBalance = cftToken.balanceOfUser(investor);\n            uint256 investorDividend = (investorBalance * dividendAmount) / totalSupply;\n\n            if (investorDividend > 0) {\n                cftToken.mintCFT(investorDividend, investor);\n            }\n        }\n    }\n\n\n    function getGovernanceNFT(address user) public  onlyRegisteredInvestor {\n        require(isInvestorRegistered(user), \"Recipient must be a registered investor\");\n        require(CFTbalance(user) >= 20, \"User Does not Hold qualifying amount of CFT for Governance \");\n        govNFT.mintGovernanceNFT(user);\n    }\n\n    function hasGovernanceNFT(address user) public view returns (bool) {\n        return govNFT.hasGovNFT(user);\n    }    \n\n}\n",
  "sourcePath": "C:\\Users\\Prathap\\Desktop\\Node\\new92\\chainfund\\chainfund-contract\\contracts\\ChainFundERC1155.sol",
  "compiler": {
    "name": "solc",
    "version": "0.8.16+commit.07a7930e.Emscripten.clang"
  },
  "schemaVersion": "3.4.16",
  "updatedAt": "2023-12-04T03:53:26.160Z",
  "networkType": "ethereum",
  "devdoc": {
    "kind": "dev",
    "methods": {
      "balanceOf(address,uint256)": {
        "details": "See {IERC1155-balanceOf}. Requirements: - `account` cannot be the zero address."
      },
      "balanceOfBatch(address[],uint256[])": {
        "details": "See {IERC1155-balanceOfBatch}. Requirements: - `accounts` and `ids` must have the same length."
      },
      "isApprovedForAll(address,address)": {
        "details": "See {IERC1155-isApprovedForAll}."
      },
      "safeBatchTransferFrom(address,address,uint256[],uint256[],bytes)": {
        "details": "See {IERC1155-safeBatchTransferFrom}."
      },
      "safeTransferFrom(address,address,uint256,uint256,bytes)": {
        "details": "See {IERC1155-safeTransferFrom}."
      },
      "setApprovalForAll(address,bool)": {
        "details": "See {IERC1155-setApprovalForAll}."
      },
      "supportsInterface(bytes4)": {
        "details": "See {IERC165-supportsInterface}."
      },
      "uri(uint256)": {
        "details": "See {IERC1155MetadataURI-uri}. This implementation returns the same URI for *all* token types. It relies on the token type ID substitution mechanism https://eips.ethereum.org/EIPS/eip-1155#metadata[defined in the EIP]. Clients calling this function must replace the `\\{id\\}` substring with the actual token type ID."
      }
    },
    "version": 1
  },
  "userdoc": {
    "kind": "user",
    "methods": {},
    "version": 1
  }
}